:020000041000EA
:1000000000B5324B212058609868022188439860DF
:10001000D860186158612E4B002199600221596106
:100020000121F02299502B49196001219960352056
:1000300000F044F80222904214D00621196600F024
:1000400034F8196E01211966002018661A6600F04E
:100050002CF8196E196E196E052000F02FF8012189
:100060000842F9D1002199601B49196000215960AB
:100070001A491B48016001219960EB211966A021F2
:10008000196600F012F800219960164914480160C1
:100090000121996001BC002800D000471248134993
:1000A000086003C880F30888084703B5996A0420EC
:1000B0000142FBD001200142F8D103BD02B5186610
:1000C0001866FFF7F2FF186E186E02BD00000240BE
:1000D000000000180000070000035F00212200005C
:1000E000F4000018222000A00001001008ED00E03C
:1000F00000000000000000000000000074B24E7A12
:1001000000200420F7010010C3010010C5010010F9
:10011000C1010010C1010010C1010010C101001097
:10012000C1010010C1010010C1010010C701001081
:10013000C1010010C1010010C9010010CB01001065
:10014000CD010010CD010010CD010010CD01001037
:10015000CD010010CD010010CD010010CD01001027
:10016000CD010010CD010010CD010010CD01001017
:10017000CD010010CD010010CD010010CD01001007
:10018000CD010010CD010010CD010010CD010010F7
:10019000CD010010CD010010CD010010CD010010E7
:1001A000CD010010CD010010CD010010CD010010D7
:1001B000CD010010CD010010CD010010CD010010C7
:1001C00000BE00BE00BE00BE00BE00BEEFF3058054
:1001D000103800BEF2EB8871F84E0110244F011068
:1001E0003802001090A31AE71E481F49086006C88D
:1001F00081F3088810471D480068002801D019487D
:10020000F3E70DA40ECC002902D000F012F8F9E7B4
:100210001749184A002000E001C19142FCD116495B
:100220008847164988471649884700BEFDE701C937
:1002300001C29A42FBD37047244F0110D000002026
:100240007C0E0020D05C011000000420000004207F
:10025000D05C0110001004200010042000000000F9
:10026000704700000000000008ED00E0000000D032
:100270007C0E0020A0560320E56D0010E91100104F
:10028000A56D0010F8B5C04606480749091A8B103D
:10029000C90FC91810B5491003D0044B002B00D06A
:1002A000984710BD7C0E00207C0E0020000000004E
:1002B000054B10B5002B03D00449054800E000BFF2
:1002C000FFF7E2FF10BDC0460000000084F70020E9
:1002D000D4D0001070B5824C2568002D00D1AAE062
:1002E000AF46804B2360804B9B699B0600D586E020
:1002F000D0231B061B68012B00D1C7E001227B4BDA
:100300001A607B4B00229B5E7F2B00D1B6E020223F
:10031000754910008B6918401A42FAD17F23754A3B
:100320000B601368013B00D5A6E01360632B00DC73
:1003300094E000230220236070BD6F4B23606A4B62
:100340009B699B065BD4D0231B061B68012B00D145
:10035000A7E00122654B1A60684B1D78644B0022B0
:100360009B5EAB4200D194E020225F4910008B6974
:1003700018401A42FAD10D600D2D00D194E07F2D66
:1003800076D05C490A68531C0B605D498D54CDE7FB
:100390005C4B2360544B9B699B0630D4D0231B06D7
:1003A0001B68012B61D00122504B1A60504B002278
:1003B0009B5E0A2B00D18AE020214B4A93691942A7
:1003C000FCD10A231360B4E74F4B2360464B9B6973
:1003D0009B0614D4D0231B061B68012B74D001226A
:1003E000424B1A60424B00229B5E202B64D020219E
:1003F0003D4A93691942FCD13A4B116023600120B8
:100400009AE7424B2360384B9B69DB06F7D4D02335
:100410001B061B68012B25D00122344B1A601021CA
:10042000314A93691942FCD11268344B01201A7089
:10043000314B236080E764220021314805F0BAF88F
:100440002C4B294A1D609369DB0607D41021936960
:100450001942FCD1136893691942F8D02B4B012043
:10046000236069E72A4A1360D9E7294A13609DE7A8
:10047000254B012023605FE71060EFE720211A4A37
:1004800093691942FCD10D23136040E7204A1360A1
:1004900037E72021144A93691942FCD10D231360D8
:1004A00062E71B4A136057E7124A154B12689854CB
:1004B000144B012023603FE720210B4A9369194226
:1004C000FCD10D23136092E7114A13608AE72021C3
:1004D000054A93691942FCD10D2313606CE7C046AD
:1004E00018FD0020E2020010004003403CFC002008
:1004F00084FE002038FC00203A03001098560320A8
:1005000050FC002090030010C803001002040010EB
:1005100040FC0020F0B5DE4657464E464546E0B565
:10052000474B85B01B68002B00D087E0454B1B680C
:10053000002B1AD1444B454E9A460027444C336851
:100540000FE00022554653009B189B00534428009F
:100550009B68984722683368013222600C359A42C2
:10056000F1DB2760002BECDCFEE7012B06D005B0A9
:10057000F0BCBB46B246A946A046F0BD324B344C57
:100580009A46344B314E9846334B344F0293344B9A
:10059000344D0393002399463B6801333B604B463F
:1005A00023603368002B00DCFEE72B00BB462500F0
:1005B000370054461E004B46336002F003FF4346AB
:1005C0002A681860596053009B189B0053449B682D
:1005D000200098473368012B0BD02B683A68013311
:1005E0002B600C349342E6DB2C0035003E005F4666
:1005F000D2E72C00236802999B00CA5835000132CB
:10060000CA5002F0DFFE039A23689446DB009C4444
:100610006346009001911868596843461A685B6800
:10062000801A994102000B000098019912184B4161
:1006300061463E000A604B605F46ADE79F46C0469C
:1006400044FC00204CFC002028FD002020FD002060
:100650006CF70020A012002020FE002018FE0020D1
:10066000001000203CFC0020F0B5DE4657464E4608
:100670004546E0B5474B85B01B68002B00D087E0AE
:10068000454B1B68002B1AD1444B454E9A46002718
:10069000444C33680FE00022554653009B189B00E2
:1006A000534428009B6898472268336801322260CF
:1006B0000C359A42F1DB2760002BECDCFEE7012BC6
:1006C00006D005B0F0BCBB46B246A946A046F0BD78
:1006D000324B344C9A46344B314E9846334B344F60
:1006E0000293344B344D0393002399463B68013306
:1006F0003B604B4623603368002B00DCFEE72B0099
:10070000BB462500370054461E004B46336002F0BE
:1007100059FE43462A681860596053009B189B0095
:1007200053449B68200098473368012B0BD02B68FB
:100730003A6801332B600C349342E6DB2C00350021
:100740003E005F46D2E72C00236802999B00CA58FE
:1007500035000132CA5002F035FE039A23689446F0
:10076000DB009C4463460090019118685968434639
:100770001A685B68801A994102000B000098019981
:1007800012184B4161463E000A604B605F46ADE780
:100790009F46C04648FC00204CFC0020A0FD0020E5
:1007A00024FD002070F70020A812002048FE002041
:1007B0001CFE00205010002040FC0020D0231B060F
:1007C0001B6870B5012B16D016490B68092B05DD87
:1007D0000022154B1A60FFF79DFE70BD5A001348AA
:1007E000D2189200124D84186360A5600024013372
:1007F00084500B60ECE70F490B68092B0BDC5A00A7
:100800000D48D21892000A4D84186360A560002438
:10081000013384500B600022084B1A60FFF724FF5D
:10082000DBE7C04620FD002044FC002028FD00201E
:10083000410C001024FD0020A0FD002048FC0020F9
:10084000F0B5DE4657464E464546E0B502688DB0E7
:1008500001230190002A30D0E14A0492019A0499C0
:100860001160002B07D101200DB0F0BCBB46B24691
:10087000A946A046F0BD02F0A5FDDA4B98465B689C
:100880008B42F0D803D143461B688342EBD8D02378
:100890001B061B68012B00D1CCE10122D24B1A6050
:1008A0000F20D24BD24C1D6863689C460133184020
:1008B000D04B9946D04B059364E0CE4B99461B68CC
:1008C000002B3FDDCD4B00269B46CD4B08AF009360
:1008D00001239A465B46F400A41B009AA4001B194E
:1008E00003CA03C307F004FB804607F001FB43463D
:1008F00005005804C34B400C9C4660440CF010FBB0
:100900000F210CF035FBBF4B38609C466804400C4F
:1009100060440CF005FB5C440F210CF029FB230024
:100920003A007860103321CA21C307F0E1FA0E23A0
:100930001840534618434B46C0B220761B68013618
:100940009E42C7DB00F042FDA94C00262000402259
:1009500000210830266004F02DFEA74B402218002D
:100960000021083005931E605E6004F023FEA64B54
:1009700001209D6A9D4B1D6000239C46994B984623
:10098000974B0493042280219F4B49009E6A9F4B02
:1009900006931E609E4B1A609E4A13680B42FCD061
:1009A000614653680231890062581B041B0C9A1A75
:1009B00063500F2327686060D219D1170B409B1832
:1009C00022604A4612681B119A1AD11752184A40DF
:1009D0000A2A14DDDA43D21713408022120193420F
:1009E00000DD25E14A46002113608B48442204F0D3
:1009F000E1FD0122894B1A600022894B1A600F2108
:100A0000059B701B1B68DA171140C918091101F00A
:100A1000ABFD01F0DBFD00F0B5FE4B461B68002B83
:100A200037DD764B00269B46434600935B46F50038
:100A3000AD1BAD005C19A368E0689A460CF0D0FAD3
:100A400003B2504698460CF0CBFA414604220023EC
:100A500000B200F0CFFF5B465B5960689A46237E88
:100A60002700DBB298460CF0BBFA05B250460CF0FA
:100A7000B7FA43460422290000B200F0BBFF4B4600
:100A8000083706CC06C71B6801369E42CEDB009BAA
:100A900098464B46634C1A6823689A4246DA4B469E
:100AA0001E6823689E4218DA544B1D00F3009B1BFE
:100AB0009B00EB189A68D86892460CF091FA07B23E
:100AC00050460CF08DFA00230422390000B200F0E9
:100AD00091FF236801369E42E8DB4B461B68059D6B
:100AE0002360494B6868996A069B821C1B689200C8
:100AF000C91AAB58A9500F222C68CB1A1B192B60AE
:100B0000431C13406B60484B484C5B1A236002F057
:100B100059FC23680293DB170393029B039CC018C4
:100B20006141434618605960002397E64B461A68B6
:100B300023689A42D1DD4B4627681B68BB42CCDD57
:100B40002E4B07949B462E4B00930AAB9A46FC0013
:100B5000E41BA4005C44A668E0680CF041FA05B20E
:100B600030000CF03DFA290000B20023042200F00E
:100B700041FF2300009A013703CA03C307F0B8F905
:100B8000060007F0B5F91F4B05009C467004400CA9
:100B900060440CF0C5F90F210CF0EAF953461860D7
:100BA000184B68049C46400C60440CF0B9F90F21C6
:100BB0000CF0DEF95346586023005246103321CA28
:100BC00021C307F095F90E2318400D3B18434B46FF
:100BD000C0B220761B689F42B9DB079C7DE7C04608
:100BE0005C080010C01200203CFC002080FE0020A9
:100BF000D0160020F8060020DCFB0020181700208B
:100C000040D4001001C0FFFF0040054064F7002001
:100C100000E0044000C00440C81200200C15002071
:100C20005415002034FC0020E88000007CFE0020E9
:100C30001300D7E6014A136032E6C04640FC0020AC
:100C4000F0B5DE4657464E464546E0B5026893B0DD
:100C500001230390002A24D0D44A91464946039A9E
:100C60001160002B07D1012013B0F0BCBB46B24687
:100C7000A946A046F0BD02F0A5FBCD4B9A465B68A5
:100C80008B42F0D803D153461B688342EBD8D02364
:100C90001B061B68012B00D1C4E10122C54B1A6061
:100CA00003E0C34B9A46C14B9946C34BC34A9B6A68
:100CB00093461360C24A1168002900DC98E1C14BD9
:100CC000C14D0093C14BC24F0193C24B2C00069300
:100CD0005B460793534608934B46BA460026934615
:100CE0002F00099369E00A980CF0B2F981460B983D
:100CF0000CF00EF9002200230CF02AF900287EDC0B
:100D00000B980CF0A5F98046010048460CF060F9FC
:100D100000286DDC484601990CF0A2F98146009943
:100D200040460CF09DF9010048460CF089F98021FD
:100D3000C90280460CF04CF9012800DCAAE0002230
:100D4000F500AB1B9B00FB185A76A821AD1BAB002E
:100D5000FD186868090498460CF03AF943460128E2
:100D600061DCF85800210CF033F9002849DC2869CF
:100D70000CF07EF9C317C01858400CF0D1F8286168
:100D80005346206919680CF05BF95346206160698D
:100D900059680CF055F96061206821690CF050F930
:100DA0002060606861690CF04BF95B4660601B680D
:100DB00001361C349E4200DB12E1200000F0B0FA44
:100DC0000500206829680CF023F90A9060686968BA
:100DD0000CF01EF90B900A980CF09AF800220023F0
:100DE0000CF0B6F8002800DC7DE70A9B99467EE708
:100DF000484600990CF034F90199814690E70B9828
:100E000081E74346A021F85849040CF0E1F8012895
:100E10007FDD28690CF02CF9C317181A58400CF024
:100E20007FF82861ACE7F85801F062FB01F080FB25
:100E30002A00694B03CB03C207F05AF8814607F03A
:100E400057F810AB98464B4602905804634B400C41
:100E50009C4660440CF064F80F210CF089F8029B6A
:100E6000109058045D4B400C9C4660440CF058F8C0
:100E70000F210CF07DF8434658602B00424610339A
:100E800003CA03C307F034F80E23012203401343BF
:100E90002B7675E74346DB17C14698460A984A46C3
:100EA000C117430CC9031943C003434603F038F884
:100EB0000C900B984A46C117430CC9031943C00351
:100EC000434603F02DF80D9020690C99636999460B
:100ED0000D9B02930CF0C4F80299804648460CF032
:100EE000BFF8010040460CF0ABF80CF011F80123FC
:100EF00000225B420CF054F80CF0C2F880460CF073
:100F000007F8002200230CF023F801280DDCF5007F
:100F10001BE7686800210CF05BF8002800DD2FE774
:100F200068690CF095F868612AE790210C98C9026D
:100F30000CF096F890210E900D98C9020CF090F8E4
:100F40000F9028680E990CF07BF8206068680F9964
:100F50000CF076F860600C9841460CF081F80C902B
:100F60000D9841460CF07CF80D9020690C990CF01E
:100F700067F8206160690D990CF062F86061206982
:100F800006990CF06DF82061606912490CF068F860
:100F9000F500AB1B9B006061FB185B7E002B3ED015
:100FA0000122AB1B9B00FB185A76CEE65C0C0010AE
:100FB000B01200203CFC00200040054018F7002043
:100FC000F8060020EF7A000018170020EB3200002E
:100FD00048D400103333000040D4001001C0FFFF9C
:100FE000079B9B46089B9A46099B99465B461B6854
:100FF0000E4A0F4C926A9B1A0E4A94466344236031
:1010000002F0E0F923680493DB170593049B059C29
:10101000C018614153461860596000231EE601F074
:1010200023FABDE7044A13603FE6C046004005408E
:1010300078FE0020E880000040FC002003680122C8
:10104000F0B5002B29D01C4B0360002A23D01B4B8A
:101050009B699B061FD4D0231B061B68012B20D045
:101060000122174B1A60174E174D3468174B2F5D2E
:1010700000229B5EBB4217D02021104A936919427F
:10108000FCD1176001342B5D00223460002BDAD1D3
:1010900003600220F0BD0120FCE70024094E0A4D48
:1010A000F1E70B4A1360DEE72021044A93691942F5
:1010B000FCD10D231360DFE7461000100040034011
:1010C0003CFC002080F70020B4FC002084FE0020BF
:1010D00040FC0020F8B503680400002B4FD0324DCF
:1010E0009F46324A3249334807F0D0F82E4D324AF3
:1010F000324BC1CBC1C2110045CB45C105CB05C1A7
:101100001A880A809B788B7000232B602C4B280058
:101110002360FFF793FF012808DD0022294B1A60A6
:10112000294B2360FFF7D6F80128DAD80020F8BD54
:10113000264B036002F046F9254A53688B4229D8B2
:101140002AD0D0231B061B68012B2AD00122214B59
:101150001A601949204B0A0061CB61C223CB23C21C
:101160001988114D11809B78937000232B601B4BC5
:1011700028002360FFF762FF0128B8DCD6E702F001
:1011800021F90023164A124D801859410F4B28604F
:10119000696023600120CAE713688342D1D9012026
:1011A000C5E7104A1360D4E71CFD00208CFE002028
:1011B00018D1001050FC0020B4FC0020F4D0001026
:1011C0000C11001018FD002020110010301100102B
:1011D000B81200203CFC0020D8D000106E11001086
:1011E00040420F0040FC002070B584B03F4803AB84
:1011F00002AA01A902F084FB002803D13C483B4924
:1012000001F042FB039A0299019802F09DFA05F061
:10121000E9FE01F051F906F0F5FA1F211A2001F05C
:10122000F1FA00221A20110001F006FB00211A2019
:1012300001F016FBE0222F4BD2011B6813402E4A0F
:10124000136000F0B7FA01F0DFF801F05FF806F084
:1012500037F82A4806F0A2F8D0231B061B68012B9A
:101260000BD0274A1368092B28DD0022254B1A6072
:10127000FFF750F9002004B070BD234A1368092B12
:1012800005DD0022214B1A60FFF7EEF9F2E70C2191
:101290000C005C431E481F4E05196B60AE600025B4
:1012A00025505C1C14600A2CEBD061434618746016
:1012B000194C0233B4600D501360E2E70C210C00AE
:1012C0005C431648134E05196B60AE60002525502F
:1012D0005C1C14600A2CC8D06143461874600E4C24
:1012E0000233B4600D501360BFE7C04690D00300D6
:1012F0001CD1001000C0044000D00440BD07001005
:1013000020FD002044FC002024FD002048FC00209B
:10131000A0FD0020D51000104108001028FD00207D
:10132000F0B5C64600B5050040680BF0F1FD24237A
:1013300000225B420BF074FE002208230BF040FEFB
:101340000BF05EFE04000F2839DD0F24A02063019E
:101350005B104000C01A0BF0E3FD80462868414650
:101360000BF056FE0BF0D4FD002208230BF058FEC4
:10137000102300220BF024FE0BF042FEC343DB17C8
:10138000114D1840A04200DD200040010BF0F8FD97
:10139000060040460F000BF0BBFD02000B003000C2
:1013A00039000BF03DFE0BF06BFE05342860200188
:1013B0000BF0B6FD6860280080BCB846F0BDC343A2
:1013C000DB171C40C2E7C04678F70020F8B5502371
:1013D000DE469B4600234E4645465746994698466C
:1013E000E0B5E24C58460BF09BFD4B460500A020B3
:1013F0001B014000C01A0BF093FD0BF089FD434622
:10140000DB009A460022002306000F000BF008FEC6
:101410000BF036FE5346E050E3185D604A46434603
:101420000133002A00D13EE1DB009A46002210235E
:10143000300039000BF0F4FD0BF022FE5346E05073
:10144000E3185D604A4643460233012A00D131E188
:10145000DB009A4600222023300039000BF0E0FD2B
:101460000BF00EFE5346E050E3185D604A464346DB
:101470000333022A00D124E1DB009A460022302304
:10148000300039000BF0CCFD0BF0FAFD5346E05074
:10149000E3185D604A4643460433032A00D117E14E
:1014A000DB009A4600224023300039000BF0B8FDE3
:1014B0000BF0E6FD5346E050E3185D604A464346B4
:1014C0000533042A00D10AE1DB009A4600225023AA
:1014D000300039000BF0A4FD0BF0D2FD5346E05074
:1014E000E3185D604A4643460633052A00D1FDE015
:1014F000DB009A4600226023300039000BF090FD9B
:101500000BF0BEFD5346E050E3185D604A4643468B
:101510000733062A00D1F0E0DB009A460022702350
:10152000300039000BF07CFD0BF0AAFD5346E05073
:10153000E3185D604A4643460833072A00D1E3E0DA
:10154000DB009A4600228023300039000BF068FD52
:101550000BF096FD5346E050E3185D604A46434663
:101560000933082A00D1D6E0DB009A4600229023F6
:10157000300039000BF054FD0BF082FD5346E05073
:10158000E3185D604A4643460A33092A00D1C9E0A0
:10159000DB009A460022A023300039000BF040FD0A
:1015A0000BF06EFD5346E050E3185D604A4643463B
:1015B0000B330A2A00D1BCE0DB009A460022B0239C
:1015C000300039000BF02CFD0BF05AFD5346E05073
:1015D000E3185D604A4643460C330B2A00D1AFE066
:1015E000DB009A460022C023300039000BF018FDC2
:1015F0000BF046FD5346E050E3185D604A46434613
:101600000D330C2A00D1A2E0DB009A460022D02341
:10161000300039000BF004FD0BF032FD5346E05072
:10162000E3185D604A4643460E330D2A00D195E02B
:10163000DB009A460022E023300039000BF0F0FC7A
:101640000BF01EFD5346E050E3185D604B460F2B38
:1016500000D08DE043460F33DB0098460022F02394
:10166000300039000BF0DCFC0BF00AFD4346E05083
:10167000E3185D608823DB00E61860680BF0B0FCBF
:1016800005B220680BF0ACFC08340F2304222900BB
:1016900000B200F0AFF9A642EFD1F0BCBB46B246B3
:1016A000A946A046F8BD1032944698460123E3446B
:1016B000994697E6984610239C460E3B9946E3448C
:1016C00090E6984610239C460D3B9946E34489E6F4
:1016D000984610239C460C3B9946E34482E6984684
:1016E00010239C460B3B9946E3447BE69846102327
:1016F0009C460A3B9946E34474E6984610239C4670
:10170000093B9946E3446DE6984610239C46083B06
:101710009946E34466E6984610239C46073B994663
:10172000E3445FE6984610239C46063B9946E34413
:1017300058E6984610239C46053B9946E34451E6FB
:10174000984610239C46043B9946E3444AE6984653
:1017500010239C46033B9946E34443E698461023F6
:101760009C46023B9946E3443CE6C0469CF7002079
:101770000F239C460133E0449C46013B9946E344D9
:1017800030E6C046882370B5094CDB00E618606877
:101790000BF026FC05B220680BF022FC08340F2366
:1017A0000422290000B200F025F9B442EFD170BD47
:1017B0009CF70020F0B5D6464F464646C0B57B495B
:1017C0008AB07B4805F0E2FE7A490600784805F0C9
:1017D000DDFE79490500764805F0D8FE0023802219
:1017E00099460593F82352025B0202920393C023A9
:1017F00004001B03102202A906A89846049303F0D4
:10180000DFFE3100731C08310A03DB01134306A914
:10181000102202A8079303F0D3FE684B012705931B
:10182000A02306211B0310209A46029300F0EAFF32
:101830000123102200215E48009705F029FF3200A5
:10184000002102AB5A4805F07DFF29006B1C0D31C9
:101850000A03DB0113435A4A062113408022D205B2
:101860001343079343460893564B1120099353465D
:10187000069300F0C7FF0123112201214C48009775
:1018800005F006FF2A00012106AB494805F05AFF82
:101890004B4680220593F82352025B020292039387
:1018A0004346102202A906A8049303F089FE2200F1
:1018B000A31C08321203DB01134306A9102202A85D
:1018C000079303F07DFE404B0621059380231220F1
:1018D0009B02029300F096FF0621132000F092FF76
:1018E0000621142000F08EFF0621152000F08AFF4B
:1018F0000423122202212E48009705F0C9FE22007F
:10190000022102AB2A4805F01DFF012005F068FF07
:10191000A0260400012005F063FFF605B4462B4B1A
:10192000E502C2022A492B4013431943294EA30161
:1019300063441E60284E80015E609626B6029E605B
:101940001961264960440A4025492A430A4325492A
:1019500001608021436087600261154A4902536833
:101960000B42FCD18021204B89021361104A53683D
:101970000B42FCD1E0238021FF3353610C4AC902A2
:1019800053680B42FCD14023FF339361174B184A35
:10199000A0211A6001238622A340C905D2008B50E2
:1019A0000AB0E0BCBA46B146A846F0BD8CD90010DA
:1019B0000000205068D900104CD90010000200042B
:1019C000FFFFFF9F2046004452024010FD0700FF2A
:1019D0001100010090FE002018002050FD871FFF1D
:1019E00009801F00FC0600208F020000002020500C
:1019F00007070000F0B54546DE4657464E469C4672
:101A00000123E0B595B25B1B89B01BB20693EB03D3
:101A10005B1B5B001BB207938BB29846C3430592D6
:101A2000A022DB1792000340934200DBDC4B4246CE
:101A3000F026AC18221C24B27600B44201DBE0226E
:101A4000FF3212B2D443E41722409600B618424641
:101A5000F027541BF601221C24B2F6187F00BC426A
:101A600001DBE022FF3212B2D443E417224094009B
:101A7000A418E401E418019467100124C94A731002
:101A80009946A346D35C344200D17DE164462601E9
:101A90000F242340A2464C46F6B2334313555B460F
:101AA000019C234200D175E15446D35D1C4026437E
:101AB000F02483B2D655081C6400A14202DBE02169
:101AC000FF31081C01B2C843C0170140EC18880060
:101AD000401821B2C943C9172140A02409B2C0014E
:101AE000A400A14200DBAE4909184C10165DC907DD
:101AF00000D489E10F213140664636013143C9B235
:101B000011555C1B21B2C943C9172140A02409B259
:101B1000A400A14200DBA24909184C10105DC907BE
:101B200000D46BE10F210140604600010143C9B2BE
:101B300011550599002900DC3EE161460901C9B251
:101B4000019100210391414601200F2798460291FF
:101B5000D1E04B46019C3B402343994653464C46BB
:101B6000D45443469B1B9A461BB2DB43DB17994672
:101B700053464C4623401BB29946A0239B009945EF
:101B800001DB874B9946049C4C44A24663109B465C
:101B9000D45C5346184200D12CE1019B3C401C43CD
:101BA0005B46D454029B5B1B1C1C1BB29A46F02361
:101BB0005B009A4502DBE023FF331C1C24B2E343A5
:101BC000DB171C40A3009A465444E40161184B10F3
:101BD0009B46D35C084200D107E11900019B3940C4
:101BE00019435B464C44D15463109946D15C204262
:101BF00000D1F2E0019B394019434B46D154029B7E
:101C00009C19F023211C24B25B009C4202DBE023E0
:101C1000FF33191C09B2CC43A946E41721408C00BC
:101C20006418E301C14404934B4619B2C943C91770
:101C30001940A02309B29B00994200DB5849049B3C
:101C4000CB189B465B109A46D35C99465B4618427C
:101C500000D1BCE04B46019C3B4023439946534690
:101C60004C46D45443465B1B1DB2ED43ED171D405B
:101C7000A0232DB29B009D4200DB494D049B994659
:101C8000A9444B465B109A46D45C4B46184200D19F
:101C9000A7E0019B3C401C435346D454029B9E1B2F
:101CA000F023341C36B25B009E4202DBE023FF339C
:101CB0001C1C24B2E643F6173440A6003419E40194
:101CC00061184B109946D65C084200D17BE0019B1D
:101CD0003E401E434B466419D6546510515D204268
:101CE00062D0019B394019435155059B03998B42A2
:101CF00062DD6B469D8A069B99B2002B09DB6C1E48
:101D000023B2A5B2079C0593023423B2611807934E
:101D100089B2039C0134A6B223B2740001340919BC
:101D200003930BB20693029B5C19F023211C24B28F
:101D30005B009C4202DBE023FF33191C09B2CC4359
:101D4000B146E41721408C006418E301C1440493B8
:101D50004B4619B2C943C9171940A02309B29B00C9
:101D6000994200DB0E49049BCB189B465B109A46B8
:101D7000D35C99465B46184200D0EAE64B4664467F
:101D8000BB4323439946E9E60F24A3436446234318
:101D90004C4613550F23D65D9E4363461E4387E68C
:101DA0007F02000090FE00206346B943194351555D
:101DB000059B03998B429CDC09B0F0BCBB46B24644
:101DC000A946A046F0BD6346BE431E4382E74B468C
:101DD0006446BB432343994641E76346B9431943ED
:101DE0000BE76346BC431C4356E719006346B943FF
:101DF0001943F6E66346BC431C43D1E60F218843F2
:101E000001006046014393E60F218E433100664690
:101E1000314375E6F0B5DE4657464E464546E0B5D9
:101E200085B01E000EAB1B7812188B469A46904266
:101E300044DA51460901C9B25E448946B3453DDAE8
:101E4000F02149008846E039FF398C46494653461F
:101E500000910F27594693460200234D019313B278
:101E6000DB43A020DB1713401BB28000834200DB62
:101E70001E4BDA4608009B460292039102B2031CF5
:101E8000424501DBE023FF331BB2DA436146D21740
:101E900013409A00D218D2015A445310EC5C1142FC
:101EA00013D1019ABC4314430130EC548642E5D16E
:101EB000029AD346013203995245D0D105B0F0BC05
:101EC000BB46B246A946A046F0BD009A3C4014432A
:101ED0000130EC54B042D1D1029AD3460132039979
:101EE0005245BCD1EAE7C04690FE00207F020000C8
:101EF000F0B54E464546DE465746E0B593B09846A7
:101F00001CAB1E781DAB1C78A023029607949B0087
:101F1000984200DBA5E0A03B994200DBA1E0A4468B
:101F2000630063445B001B18002B00DC99E0E300B6
:101F30005B18002B00DC94E03501EBB204934346C0
:101F40001B01DBB2019393009B1889B29C460B00E6
:101F500008339BB209930F23A64A9B4694446346D9
:101F600087B200201193434606000D970F97009308
:101F70001091052E00D13BE1119B9D5D6B463422F3
:101F80009B5E10999C460A930F9B0C00981903B214
:101F9000DB43079ADB17624403400B930E960892CB
:101FA000EB0700D475E0079B012B00D1CEE00A9B24
:101FB00008980AB2834242DA079EB618B2423EDA65
:101FC000F0279046089A7F00BC4692462F008A4828
:101FD00003930C91039A13B2DB43DB171340A02247
:101FE0001BB29200934200DB844B4546C1461A0067
:101FF0000597069429B22B1C614501DBE023FF33D2
:102000001BB2D9430124C9170B409900C918C90153
:1020100089184B10C75C0C422AD159468F4300994E
:1020200001350F43C754AE42E4D1039BC846013388
:10203000059F069C03939A45CCD13D000C99079BC4
:1020400001349C46099B6144A4B26D0889B29C424C
:10205000A6D10D9B0E9E63449BB201360D93062EB6
:1020600087D113B0F0BCBB46B246A946A046F0BD2E
:1020700059460F40019901350F43C754AE42B9D1BB
:10208000039BC8460133059F069C03939A45A1D143
:10209000D3E7029B009A9342D1D0079B012B78D0C3
:1020A0000A9B08980AB28342C9DA07988618B24296
:1020B000C5DAA0270C9111001A00BF000397A03FBA
:1020C000BC464D48E03FFF3F0595069413B2DB4305
:1020D000DB171340039C1BB2A34200DB474B0C00F1
:1020E0008946924622B2211C624502DBE022FF3281
:1020F000111C09B2CA43D21711408A005218D201EA
:10210000D2185510415D174211D15A469143029A97
:10211000013411434155B442E4D15246089B013287
:1021200049469342D2D1059D069C0C9987E75A46B1
:102130001140049A013411434155B442D2D1524660
:10214000089B013249469342C0D1ECE7F02220B20D
:10215000231C5200904201DBE023FF331AB2D34329
:10216000DB171A4093009B186A46A0202C26925F2A
:10217000DB018000824200DB204A9B181E485E1073
:10218000825DDB0728D55B461A40019B1A438255C6
:1021900055E7F02220B2231C5200904201DBE023DD
:1021A000FF331AB2D343DB171A4093009B186A46D9
:1021B000A0202C26925FDB018000824200DB0F4AC8
:1021C0009B180D485E10825DDB070BD55B461A40FD
:1021D000049B1A43825532E75B469A43009B1A439D
:1021E00082552CE75B469A43029B1A43825526E7A9
:1021F0000025C3E650D4001090FE00207F020000AE
:10220000024B1880024B19807047C046925603203B
:1022100094560320034A031C002800D10123DBB29B
:102220001380704796560320024B1870024B1970AA
:102230007047C0469B5603209A560320F0B5CE4601
:10224000474680B50278040083B0002A22D0294B8B
:10225000294D9946294E0DE00D2A08D02888092AD3
:102260001DD19F239B00984201D204302880227800
:10227000002A0FD001340A2AEED1214B1F4A1B88B5
:102280001188DB005B18138000221B4B1A80227818
:10229000002AEFD103B0C0BCB946B046F0BD4B46F2
:1022A0000027F15F164F1B78B8463F7800B20197C0
:1022B000144F3F780097FFF71BFE43461A88298882
:1022C0005300D3185B005B180F499BB209782B8031
:1022D0000029CCD0A020800084469100511A4900EA
:1022E00061448B42C3DD3388D200D2180023328090
:1022F0002B80BCE79B560320925603209456032064
:10230000965603209A5603209C5603202F4BF0B577
:10231000C6469846C0274246802601242C4B00B56D
:10232000951C1380BF017600200003F061F803F0D4
:1023300081F8284A284B02F044F80022274B02F08B
:1023400040F802F057F90022254B02F03AF800223B
:10235000234B02F00FF802F0C3F80005000D3843DC
:10236000013428800235B442DED1012005F038FA6C
:102370001C4D2860012005F033FA1B4B2A681B4DC9
:102380001860C302D1022B40194D0B431D43A023FB
:10239000DB059C46830117486344186001209201C5
:1023A00062445A6098601D6184236046124DDB00D0
:1023B000C550124B0B4012490B4341461160114965
:1023C00051609460136180BCB846F0BD0C130020CE
:1023D000FF3700006F1283C0CA2119400000703F10
:1023E00000FC9F4054F7002050F70020FD871FFF9E
:1023F00009801F0000070020FFFF1700FD7F00FF7E
:1024000015801D0008C0034010B5124C1249200071
:1024100005F01EF80222114963680A602168134022
:102420000D325140C0320A400D4904200A600D4A65
:102430000121136000F0E6F90121052000F0E2F926
:102440000121062000F0DEF90121072000F0DAF971
:1024500010BDC04600C00340002D310104F0034010
:1024600000D0034004E0034070B5A024E405A44676
:1024700080220E4B5204186883016344196911428B
:1024800013D10B490D68A9016144096911420CD1AE
:10249000084ADA6380225200DA6101231900862299
:1024A0008140AB40D200A150A35070BD54F7002032
:1024B00050F700200C13002010B5442200210748DB
:1024C00003F078F844220021054803F073F8002255
:1024D000044B1A60044B01321A6010BDC812002070
:1024E00010150020541500200407002000000000F3
:1024F00010B50C4B0A4A04000B480C490AF060FD69
:102500000AF0BEFDE1170200C317C903600C0143C6
:10251000E00301F005FD0AF0ABFD10BDC046C0466A
:1025200000000080080000000000000040010000E2
:1025300010280FDD1020094A800013680133136052
:10254000074A835802338350064A11688B4200DDE4
:1025500013607047C343DB171840ECE754150020A5
:10256000C81200200C15002070B50500114C002089
:10257000A5440C000021FFF743FE0220FFF74AFEAE
:1025800000210320FFF750FE0B4B28000B491E686B
:1025900001F0A0FC0A4B01961B6802000949009358
:1025A00002A8230004F094FB02A8FFF747FE064BA5
:1025B0009D4470BDF8EFFFFF0807002040420F0068
:1025C0005415002050D1001008100000F0B5DE4670
:1025D00057464E4645468022A021E0B508238DB0DF
:1025E0001206002049000AF0EBFC802200231206AC
:1025F000069007910AF0CCFC0AF0B2FC03B20493F7
:102600007B4B002799467B4B7B4E9A467B4BB846CB
:102610009B465746B24613E0290020000AF0D8FC3A
:10262000012800DDAFE0524608CA92464A4608C279
:1026300001239C46E04443469146112B00D1CCE057
:1026400038680AF06DFC53460500C41718680AF094
:1026500067FCC117430CC9032A001943C0032300B8
:1026600001F05EFCEC2189030AF0FAFC5B460400F1
:1026700018680AF055FC4B46C517060018680AF0A2
:102680004FFCC117430CC90332001943C0032B0090
:1026900001F046FCEC2189030AF0E2FC0500010090
:1026A00020000AF095FC0028B6DC40460AF068FCE1
:1026B000069A079B0AF074FC0B0002000292039337
:1026C0000AF04EFC210006B228000AF0A1FC0AF034
:1026D0001FFC8022002312060AF0A2FC0AF040FC34
:1026E00003B2E1202900000405930AF091FC0AF0EE
:1026F0000FFC8022002312060AF04AFC0AF030FC8C
:102700000023049A01B200933000059BFFF782FB7F
:10271000290020000AF07CFC0AF0FAFB802200234A
:1027200012060AF07DFC0AF01BFC05B2E120210034
:1027300000040AF06DFC0AF053FC0F2301B2009371
:1027400030002B00049AFFF765FB029803990022E2
:1027500005230AF065FC0AF003FCEB2100B24900F6
:10276000FFF74EFD0120FFF755FD00210F20FFF779
:102770005BFD534622491A6809A804F0A9FA09A882
:10278000FFF75CFD4FE740460AF0FAFB069A079B0D
:102790000AF006FC02900391290020000AF038FCA0
:1027A0000AF0B6FB8022002312060AF039FC0AF078
:1027B000D7FB05B2E120210000040AF029FC0AF051
:1027C0000FFC04B2029803990AF0CAFB0F23210000
:1027D0000093049A2B0000B2B5E75A463B68136099
:1027E0000DB0F0BCBB46B246A946A046F0BDC046FF
:1027F000101500200C150020C8120020040700202E
:1028000018D10010094A83009A1810B514684022A4
:10281000544080322240064CC000A44663441A60F3
:10282000044B9C466044416010BDC04604C001405A
:1028300004D0014000400140074B8000C3181B68D2
:10284000C90092000A435A400C231340034A94469D
:10285000604403607047C04604C0014004D001409A
:102860008000002905D0064B9C464023604403604D
:102870007047044B9C46402360440360F8E7C04621
:1028800004E0014004F001400FB400B5084883B0F3
:1028900004F0FAFB049B002B07D005A91800019156
:1028A00004F04CFA034804F0EFFB012004F05EFA58
:1028B000A0D100109CD10010EFF3108072B6034A33
:1028C0001368002BFCD0BFF35F8F70472C0100D042
:1028D000BFF35F8F0022024B1A6080F310887047AD
:1028E0002C0100D070B5EFF3108C72B60D4D2B6833
:1028F000002BFCD0BFF35F8F0724CB08C618C05C49
:1029000001230C40A3401C000440034207D118439C
:102910003070BFF35F8F2C608CF3108870BD100097
:10292000FFF7B2FF2C0100D0F8B54746CE468846E7
:1029300080B5EFF3108C72B6214D2C68002CFCD0C2
:10294000BFF35F8F9A422CD8D4080727055D06197C
:1029500001241740BC402C421FD007210127894683
:1029600009E0D408055D06194C4639001440A14021
:102970000C00294211D001329342F2D20120404290
:10298000BFF35F8F00220E4B1A608CF31088002873
:102990000FDBC0BCB946B046F8BD2543100035700A
:1029A000EEE7BFF35F8F00232B608CF310880120CC
:1029B00040424346002BECD00898FFF765FFC04625
:1029C0002C0100D0044A1078431CDBB2172B00D92D
:1029D000102313707047C0460C0700200021044BE1
:1029E000044ABFF35F8F02C39342FAD17047C046D7
:1029F000000100D0800100D0054B064A1360064A52
:102A0000136053609360D3601361536193617047A7
:102A10008080808000E400E004E400E01F23184090
:102A20001E3B8340002905D0C021044A4900535071
:102A300013607047802201498B50FAE700E100E003
:102A400001228240034B1B6813405A1E9341D8B2A7
:102A50007047C04600E100E070B50D00EFF310864E
:102A600072B60F4A1368002BFCD0BFF35F8F0D4B7B
:102A700010309B6884001B590B4A934203D09D423F
:102A800001D001F00DF9074B9B681D51BFF35F8F1B
:102A9000BFF35F8F0022024B1A6086F3108870BD6F
:102AA000240100D000ED00E0CD010010F0B5DE46BD
:102AB00057464E464546E0B50C0083B0EFF310880C
:102AC00072B6634A1368002BFCD0BFF35F8F614B73
:102AD00061499A68030010339F00D55900938D42D5
:102AE00043D0A54254D05D4EAA1B2F2A3DD85C4B43
:102AF0009C461B689A4601231A0099468240534619
:102B000013401F2201934B46024093409A46802275
:102B1000634650469850BFF35F8FEFF305839B46A3
:102B2000002B37D0009B5B4501D001F0B9F82A009B
:102B30004B469A439068844208D177E04B005B187B
:102B40009B00F3189868844236D01A00062151562B
:102B50000029F3DA844255D0019B002B27D0C022F4
:102B600051463F4B5200995019603A4B9B68DD51DA
:102B7000BFF35F8FBFF35F8F0022354B1A6088F37E
:102B8000108803B0F0BCBB46B246A946A046F0BDD3
:102B90000D00EAE72A004B469A4390688442D5D15B
:102BA00006201056130000280ADA0D0032E08023B8
:102BB00051462B4AD150D8E706201856002822DB70
:102BC00042001118890074188946A1689960E1795A
:102BD000D971062161569971002925DBA488F11A63
:102BE000640524154C440919E0240905490D240203
:102BF0002143998013181B4A9B001178F31899718F
:102C00001070A9E713005946002914D1FF319171C2
:102C10001549918013490A789A71144A9B1B5B41AC
:102C20005A43120D0A7097E71149E2E70620105641
:102C300013000028C4DA0F4A0F49D21A083A50028A
:102C4000400D014399800D4952080A43DA8083E719
:102C5000240100D000ED00E0CD010010100700209D
:102C600000E100E09956032001BDFFFFAAAA000081
:102C700001BD00004A07002000F0FFFF00F8FFFF41
:102C800070B501240443EFF30581EFF3108C72B6A5
:102C9000214A1368002BFCD0BFF35F8F1F4B050048
:102CA0001F4AED1A6D416A43120D1E4D8900AE6830
:102CB00052B27658A6421CD00621595691421CD0D9
:102CC00012215956914222D01E215956914220D0AC
:102CD0002A2159560324914210D0134B19781A70A7
:102CE0008171BFF35F8F00220B4B1A608CF3108849
:102CF00070BDAB680D4C5C50EFE700246100091912
:102D000089005B18FF21997109499980E5E7012441
:102D1000F4E70224F2E7C046240100D010070020A7
:102D2000AAAA000000ED00E099560320CD01001092
:102D300001BDFFFF024B9C46614489000160704762
:102D40004000003470B5114C114DAC420FD2FF263B
:102D50002368002B0CD0FFF735FE01002000FFF7A1
:102D6000E9FFA680BFF35F8F0834AC42F0D370BD9B
:102D7000FFF728FE01002000FFF7DCFF2671BFF3FC
:102D80005F8F0834AC42E3D3F1E7C0466C0E0020FD
:102D90007C0E00200A4B1968EFF3108072B60A68A7
:102DA000002AFCD0BFF35F8F1B68BFF35F8F002248
:102DB0001A6080F3108840BF002000217047C04691
:102DC00074FE0020F0B5DE4657464E464546E0B557
:102DD00083B0EFF3058203231340B54A990052589C
:102DE0000091904601229A40B24B93461A60B24B32
:102DF00001932EE043469B881BB2002B00DB99E039
:102E000043469B79002B00D0DDE0434608241C5F3D
:102E1000002C00DA06E143465A6963001B19DB0007
:102E2000D3189D68DC686B1C00D107E1A34B0099A7
:102E30009C4661449A6A0B69A81A9B1A984200D270
:102E40000D619E4800F0B6FA8C4200DDEAE000D148
:102E500026E15B4699484363434608229B5E9946B8
:102E6000002BC7DB424652695B0092464B44DB00B5
:102E70009A4453469E68DF6800F09CFA8F42B9DCA2
:102E800000D100E1002F00DAE1E0524653465469D8
:102E90001B69019A934200D1D4E041465246082072
:102EA000085E5288000421001043984704000D007A
:102EB00023002B4300D1CAE0002D00DBE7E0300007
:102EC0003900001BA94153469860D96000229A5EE0
:102ED000002A8FDB43465D6953009C18E4002C19DF
:102EE000A768E4688C4200DD84E702D1874200D9FC
:102EF00080E74646328108360DE08C4200D1D3E0AF
:102F00001E000023F25E002A0ADB53009C18E40036
:102F10002C19A768E4689B18DB00EB188C42ECDDE9
:102F200053461A804B46338043469B881BB2002B86
:102F300000DA65E743461A69EFF3108172B6136849
:102F4000002BFCD0BFF35F8F43469E88012342468F
:102F50005B42938036B21369BFF35F8F00221A6021
:102F600081F31088002E00DA4AE743465D69083392
:102F700042469C467700BF19FF00EF19BB686046C8
:102F800098460823D15E9246FC68002907DA0EE0D5
:102F9000A2424FD018000023C15E002906DB4B007F
:102FA0005B18DB00EB18DA68A242F1DD52460680BE
:102FB0000023FE5E3980002EDCDA904643469B7982
:102FC000002B00D121E70023424693714346464639
:102FD0000821595E08364B1C24D04746894655695E
:102FE00002E006004B1C18D04B005B18DB00E81811
:102FF0000A008C46E95E43881BB2002BF1DA0123FC
:103000005B42DC178360C4604A4503D031803B8952
:1030100003803A81E1464B1CE6D14C46B846002C71
:1030200000DBF8E640BF03B0F0BCBB46B246A946A1
:10303000A046F0BD9A684245ACD9B7E7631C00D002
:10304000F4E6FEE6200023699847002825D1534680
:1030500042461B8813811269EFF3108372B6116820
:103060000029FCD0BFF35F8F4246514652880A8048
:103070004246494651801269BFF35F8F00211160BB
:1030800083F31088B6E6864200D8FBE6B2E60B482A
:1030900000F090F90019694115E76568246807E7B1
:1030A000854200D8D5E6BDE7874200D828E737E754
:1030B00024FC00203C700540C52D00100040054058
:1030C00070B52E4C2569002D04D00A212C48FFF73D
:1030D00031FE70BD2B4E0321300000F061F9E66037
:1030E000FFF770FC284B03229C46D02322701B065E
:1030F0001B6801216370254B6044A3600F2380008F
:1031000020610220638063694942A18019800231F5
:10311000198647311D83585218315A5275325C391D
:10312000995218320131995218320131995218329C
:1031300001319952083518329D5202311832995294
:103140001832013199521832013199521832013135
:1031500099521832013199521832013199520C4B5F
:103160000C49DC6001303562FFF776FC0121032059
:10317000FFF754FC084B1D60A7E7C0465807002026
:1031800074FE00200040054040000034FFFF1000A6
:1031900024FC0020C52D00103860054070B50100EA
:1031A0000469EFF3108C72B620680028FCD0BFF3DE
:1031B0005F8F02200D5E4C6968004019C000241822
:1031C000002D37DB208848800869BFF35F8F002619
:1031D00006608CF31088E3606388049801332061F3
:1031E0005B0405985B0CA26060611A1C002B1FD069
:1031F00093B22804628018430A69EFF3108C72B608
:103200001368002BFCD0BFF35F8F8B8823808D80E9
:103210000B69BFF35F8F00221A608CF310880B7864
:1032200001329A40CB6808498C4663441A6070BDED
:103230000122DDE70B69BFF35F8F00221A608CF378
:10324000108801204042F2E73C20000010B543897D
:103250000A1493421ADD53009B184269DB00D3180D
:103260000469EFF3108C72B62268002AFCD0BFF319
:103270005F8F5A88090494B2090C8A4208D0036906
:10328000BFF35F8F00221A608CF31088002010BDFE
:103290008022120214435C80012302698371BFF310
:1032A0005F8F002111608CF31088044902788C46EE
:1032B0009340C268012062441360E8E73C200000AC
:1032C000F0B5CE46474680B504000D0083B0EFF35D
:1032D00005878846002F3ED12E4EA1463378F068F0
:1032E00004339B00816A1B58601A5B1A98420ED304
:1032F00020BF294900204B6AAB4203D38A6A0130C0
:10330000944231D803B0C0BCB946B046F0BD00F01D
:1033100059F822002B00121A8B41002B2FDB1F4B78
:103320002200009330002B000197FFF737FF011EAA
:1033300025DD194B5A6AAA421BD220BF3000FFF785
:1033400085FF154A0020536A4345DBD3926A01305A
:103350009145D7D908E0104900204B6AAB42D1D340
:103360008A6A0130A242CDD25B1B5A1E9341D8B269
:10337000C8E79B6A9C42E1D9AA42DFD1DDE7064A51
:103380000020536A4345BDD3926A01209145B9D9C3
:10339000EAE7C0465807002000400540952D001080
:1033A00010B5024A0248FFF79DFA10BDB0D10010D7
:1033B00024F700200300416A0A00986A596A8A4289
:1033C000FAD17047034B596A0A00986A596A9142C8
:1033D000FAD170470040054070B504000D00174A4F
:1033E000536A1900966A536A8B42FAD13000190069
:1033F00024184D41AB4216D813D0104A2B00526A04
:10340000954203D90D494A6A9A42FCD39A4207D1A0
:103410000A4A02E0516A994202D1916AA142F9D363
:1034200070BDA642E9D9054B5B6A1C005A1CEFD05F
:10343000012301246442E5175B42E3E700400540B5
:10344000F8B5040006200D0000F078F9002844D0FB
:10345000374B3849E3185A1E934180221204944690
:103460005B429B0D344A9B0563441360334A1360EF
:1034700018000A689043FBD12D4B314AE31859429A
:103480004B4180215B0049000620995200F056F91B
:103490002900C00000F01EFD0130C3091ED14027E5
:1034A00001226262A362266BF30722D4E36A254BF2
:1034B0000620E51800232B60266300F03FF9390051
:1034C000800000F007FD7023E26A5A400E3313407B
:1034D0002B601D4B23630323A364F8BD1B4A934257
:1034E0001ED900231A4A1B4F6262A362266BF307A0
:1034F000DCD5194B144AE3181A60656AA36A0620E2
:10350000AD01ED1800F01AF9144900F0E3FCAD022A
:103510000100280000F0DEFC0021FFF75DFFC5E799
:103520004006800E9F011A003F180300B9E7C0460D
:103530000080FCBF08C0004000E0004000F00040F8
:1035400084FE00202C10000001030000FEFF00009C
:10355000FFFF0000C0FF3F00303000004E0E0000B3
:10356000F8B5DE464E4657464546E0B58B46050063
:103570000A991800160000F0ADFC0A9B6C001F02AF
:10358000324B64199C46A4006444636881469F42A0
:1035900000D967602B1FDBB29846012B30D9C023BE
:1035A00080229B01E31812011A60294BAD00595982
:1035B0009A4600291BD17301E026226853401E4021
:1035C000802342465B01E3181E60012A30D9802324
:1035D00080229B01E31812011A6053464A46676035
:1035E0005A51F0BCBB46B246A946A046F8BD586940
:1035F00000F070FC013043001B18033BFDD2DAE7FA
:103600005B46012BCBD1C02303229B01E3181A6038
:10361000023AA3681A42FCD07301E0262268AD008A
:1036200053401E4080230A4A5B019246E3181E6005
:103630005A462168514003220A401A6001225B4623
:103640009A40A3681A42FCD0C1E7C04600800040FF
:1036500028F70020F0B546464F46D646C0B51F00B5
:10366000344B44009C462418A40064446368884694
:103670001600FF2B02D880235B006360031FDBB2C0
:103680009A46012B30D9C02380229B01E3181201F6
:103690001A60294B85005959994600291BD173019D
:1036A000E026226853401E40802352465B01E31807
:1036B0001E60012A30D9802380229B01E318120169
:1036C0001A6080235B0063604B465F51E0BCBA46E2
:1036D000B146A846F0BD586900F0FCFB013043003C
:1036E0001B18033BFDD2DAE74346012BCBD1C023A5
:1036F00003229B01E3181A60023AA3681A42FCD025
:103700007301E0262268850053401E4080230A4A48
:103710005B019146E3181E60424621685140032236
:103720000A401A60012342469340A2681342FCD02B
:10373000C1E7C0460080004028F70020014B800010
:10374000C058704728F70020F0B54746CE4680B5F0
:103750005B4B15005A680700884683B0FF2A02D8E1
:10376000802252005A600322564B554E1A600123A4
:10377000B4682342FCD0202231685140C0320A4054
:1037800051490A6032684E4E5A40032313400B6081
:103790000223B4682342FCD080224C4B12011A60F1
:1037A00080235B0073604A4C99464A4B3A00636140
:1037B000012143464848009500F0BCF941463800D5
:1037C000694300F087FB454B05005A68FF2A01D882
:1037D0004A465A608022424B12011A602169002930
:1037E00007D0606900F076FB013043001B18033BF3
:1037F000FDD2E022394B3B4819680A4002600222A0
:103800001968514001320A40042102609A6811424D
:10381000FCD08021344A09011160802252005A6094
:10382000324B2361264B5968FF2900D85A60032286
:103830000121244B1A60224A93681942FCD0E023EC
:103840001068034020480360126803234A400221A5
:1038500013401B4A036093681942FCD080211B4B24
:10386000090119608021224B4900516065615A6845
:10387000FF2A00D8596080221E4B12011A60A169EC
:10388000002907D0606900F025FB013043001B18B8
:10389000033BFDD2402316490A685A40A033134027
:1038A000154A13608022154B12011A6080235B00B9
:1038B0004B60084BA36103B0C0BCB946B046F0BD35
:1038C0003C8000403CB000403C9000403CA00040A8
:1038D00028F70020006CDC020080024030800040AD
:1038E00030B000403090004030A00040001BB700D6
:1038F0004880004048B000404890004048A0004048
:10390000F0B54E464546DE465746E0B51E00844BB0
:1039100005009846A0235B009B46824BD9469A46F9
:1039200043468B4685B0009302920396009B534515
:103930000DD901235B429C467B4AE1449446009B9F
:10394000634400934B460F2BF0D100208FE01F0003
:10395000764B31219C466744380000F0BBFA0726BD
:103960003124854264D0741EB0462E0025004446A2
:103970006C433800210000F0ADFA86424CD06B1E3B
:103980000193012D00D1B2E04346E41A2100380032
:1039900000F0A0FA864259D0AB1E0193022D00D14F
:1039A000B1E04346E41A2100380000F093FA864261
:1039B00064D0EB1E0193032D66D04346E41A210028
:1039C000380000F087FA864269D02B1F0193042D3E
:1039D0006BD04346E41A2100380000F07BFA86429F
:1039E0006BD0052D6DD03800E11F00F073FA8642D0
:1039F00000D171E00623242138009846242400F0E9
:103A000069FA864212D0052544466C4338002100ED
:103A100000F060FA8642B2D10029B0D15B462C009A
:103A2000CB4647469946029A039E18E03500464623
:103A30002100380000F04EFA002994D137005B468F
:103A40003C00CB46029A9946039E08E00029A3D188
:103A50005B464746CB469946029A039E019C5B46CD
:103A60003349012059434B4619601760346005B053
:103A7000F0BCBB46B246A946A046F0BD0029E7D03F
:103A8000EB1E0193032D98D103230921380098469A
:103A9000092400F01FFA8642C8D0022567E70029F2
:103AA000D6D02B1F0193042D93D1042310249846C4
:103AB0003B099E42BAD0032559E70029C8D0052DFD
:103AC00091D119213800192400F004FAB04223D012
:103AD0000523042598464AE7002900D08AE75B467B
:103AE0004746CB4601249946029A039EB7E7350024
:103AF000B74200D01DE75B460127CB46012499461B
:103B0000029A039EABE7022304249846BB089E4218
:103B100000D18BE701252AE73500052688E7C04656
:103B200050262F0050F80C0020D1FFFFB0710B0081
:103B3000001BB700F8B5040021481E0017000D0057
:103B400000F0C8F90100380000F0C4F9069B360403
:103B50001B031E432368002B20DB1A4B1A49E31872
:103B60005A1E93418022920194465B421B0B174AD6
:103B70001B0363441360164A13601F000A689743CF
:103B8000FBD1144B2560E2182123A0601360236849
:103B9000002BFCDA0823E6601360F8BD3F2322689F
:103BA0001340AB42D9D1A3681B051B0D8342D4D16E
:103BB000EE22E368D2021340B342CED1EDE7C04615
:103BC000001BB7000040FDBF08C0004000E00040FF
:103BD00000F00040043000008023024A9B000B43A9
:103BE000D362704700800540142310B50100188887
:103BF00004331B88984710BD162310B501001888A0
:103C000002331B88984710BDF8B54746CE4680B5AD
:103C10000F1E19D0142399460433040000250126F1
:103C200098464B461888434621681B88984701C42C
:103C3000431E9841013540420640AF42F1D1300069
:103C4000C0BCB946B046F8BD0126F8E7142370B5EC
:103C50000400188804331B880D00054998470300A9
:103C60000020002C01DB0130A04029009847C0460D
:103C700055420000AA23064A1B0113602F23054961
:103C8000D360054B19605368002BFCDA7047C046BF
:103C90000040024000B0FA00006002407047C04699
:103CA00010B50148FEF7F0FDD4D1001070B5074DF6
:103CB000074EB54209D20024013E761BB60808CD56
:103CC000984723000134B342F9D170BD90D0001061
:103CD000CCD0001070B5074D074EB54209D2002474
:103CE000013E761BB60808CD984723000134B34245
:103CF000F9D170BDC4D00010CCD00010054B064ADD
:103D000006491A60064A074B1A6010000B68984370
:103D1000FBD1704700E00040BFCDFBFE08C0004073
:103D2000FE7F3C0000F00040044BDB6C002B03D115
:103D30008022034BD2021A607047C0460000115027
:103D40004C201150044A054B1A60054A1368DB01E8
:103D50008033FBD17047C046FFFFFF0100F00040F9
:103D600008C000404022034B9A675A671A67DA6618
:103D70007047C04600F0014010B5FEF72FFE10BDA1
:103D800070B5044D044CA968C022200001F018FC55
:103D9000AC6070BD00ED00E000000020002310B515
:103DA000294C82B0A367FFF765FF0122274B1A60F9
:103DB000636C012BFCD10322254B1A60224A936BC2
:103DC000012BFCD1013300930121224A2248043304
:103DD000FFF7B0FE052301210093204A2048FFF79A
:103DE000A9FE0022022104201E4BFFF733FC002213
:103DF000012105201C4BFFF72DFC0022002107208C
:103E00001A4BFFF727FC002200210820174BFFF771
:103E100021FC8023DB000093002200210920134BAA
:103E2000FFF79EFB0022104B00210620FFF712FC3B
:103E30000420FFF783FC0E4900F04CF8010000203D
:103E4000FFF7CAFE02B010BD008000403CB0004049
:103E500030B00040002F685900800240008C864737
:103E600000C00240001BB70040597307006CDC0221
:103E700040420F0001480421014B18477007002001
:103E8000093C0010124A936F9B0815D29066D166C8
:103E9000002905D0FFE7FFE7FFE7516F106F70477C
:103EA00004B580210906C2175140002800D0C8433C
:103EB00009F07EF8002104BDF0B5146E556E576F01
:103EC000166FFFF7E3FF1466556657671667F0BD78
:103ED000000000D0114A936F9B0813D21066516600
:103EE000002905D0FFE7FFE7FFE7516F106F70472C
:103EF00004B5002801D00020C04309F059F8002182
:103F000004BDC046F0B5146E556E576F166FFFF7BF
:103F1000E5FF1466556657671667F0BD000000D0D0
:103F200094464A4A926F9208624601D228E0C046FF
:103F3000F0B5464E346E756E776F366F00F020F830
:103F40009446424A14665566576716676246F0BD46
:103F500094463E4A926F9208624601D254E0C046AF
:103F6000F0B53A4E346E756E776F366F00F04CF8E0
:103F70009446364A14665566576716676246F0BD22
:103F8000002B24DB11D000293EDA00B5C9434042A2
:103F900000D1013100F038F8C943404200D101316D
:103FA000DB43524200D1013300BD002AEBD100288F
:103FB00001D1002905D00020C90FC90701D1C04394
:103FC000410800B508F0BCFF0022002300BD00B589
:103FD00000290ADBDB43524200D1013300F014F820
:103FE000C943404200D1013100BDC943404200D124
:103FF0000131DB43524200D1013300F005F8DB43CD
:10400000524200D1013300BD002923D1002B18D129
:10401000002A0CD0BC460D4F38667A66002100237A
:10402000FFE7FFE7FFE77A6F386F674670470028C2
:1040300001D00748010000B508F082FF00220023EC
:1040400000BD02000B00002000217047000000D0DE
:10405000FFFFFFFF002B00D0BFE0130C28D1002A88
:10406000E7D080B4114F39667A66FFE7FFE730B4D6
:10407000040C7B6F396F1B0423433B667A66FFE7B2
:10408000FFE7FFE7C04684B27B6F3D6F1B0423430D
:104090003B667A66FFE7FFE7C04600232C042D0C41
:1040A0007A6F386F00196941B0BC7047000000D0CA
:1040B000F0B594460025140E01D112020835140FF4
:1040C00001D112010435940F01D192000235D40FB1
:1040D00001D152000135D40B0134254F7C66254CAB
:1040E0003C660E0C93B2FFE7FFE7FFE73C6F6643C9
:1040F000360C7703BE467343DF0B5B04C01AB9412D
:10410000130C7343DB18C91ACE086643360CB64449
:1041100093B273431F0F1B01C01AB941130C7343B1
:104120001F0B1B05C01AB941860D8F023E43664323
:10413000360C092D24DB520A7243801A7703460A93
:104140006643360C16235B1BDE40DF40BF19644616
:104150006643821B7046043506330100D940A840EF
:10416000C01900D30131A24206D20023F0BD0000E5
:10417000000000D0FFFFFFFF121B0130F3D3F1E777
:1041800009277F1BFE406446A2B27243801A00D208
:104190000139220C7243130C1204821A99410B004C
:1041A0007046043513370100F940A840801900D348
:1041B0000131002B02D1A2420AD2F0BD013000D35E
:1041C0000131121BFAD2013BF8D1A24200D2F0BD5C
:1041D000013000D30131121BF7E7F0B51C0C00D001
:1041E00080E00CB400251C0A04D11B02160E3343D8
:1041F000120208351C0B04D11B01160F33431201A8
:1042000004359C0B04D19B00960F3343920002357A
:10421000DC0B02D192185B4101351C0097186441F8
:104220000134464F7C66464C3C660E0CFFE7FFE7C8
:10423000FFE7C0463C6F6643360C7703BE4697B235
:104240007743C01B00D20139C01B00D201399FB295
:104250007743C91BC91B170C77437E04FF0B801BD8
:10426000B941CE086643360C0C2D33DBB644120B35
:104270001F053A431B0B97B27743C01B00D201398D
:104280009FB27743C91B170C77433E043F0C801B3A
:10429000B941860D8F023E43664329277F1BFE40AE
:1042A0000C3D7746AF40BF1930BCA2B2ABB27243EF
:1042B0007343801A9941220C7243130C1204801A22
:1042C000994102000B000137001BA941F9D2781E69
:1042D0000021F0BD0C277F1BFE4077467F0BAF40CF
:1042E000FF19E0E700245D1C07D0144F7D66396696
:1042F000FFE7FFE7FFE7FFE73C6F95B29EB265433C
:104300006643401BB141150C1E0C654366433604E1
:104310002F0C3E432D04401BB141994204D20200B0
:104320000B0020000021F0BD01D19042F7D3801A8C
:10433000994101349942F2D3F6E70000000000D021
:10434000FFFFFFFF44464D4656465F46F0B47047B8
:10435000F0BCA046A946B246BB4670474840414023
:10436000484018B41B4B5B68FC46019308BD04DF52
:104370008349001018B4174B1B68FC46019308BD15
:1043800000DF8D4900109446134A926F920809D2BB
:10439000624618B40F4BDB68FC46019308BD0CDF86
:1043A000454C00100C4AF0B5146E556E576F166FE1
:1043B0006246FFF7EEFF084A1466556657671667B0
:1043C000F0BD18B4034B9B68FC46019308BD08DFA1
:1043D000E94A0010A0100020000000D0FFB55040B6
:1043E0004240504059404B40594000E0FFB5154F06
:1043F0004C00640D03D0BC4204D10C0314D800203F
:10440000090D09055C00640D03D0BC4204D11C03F6
:104410000AD800221B0D1B0501264B4009D44B4036
:1044200003D58B4200D18242FFBD9942FCD190421C
:10443000FFBD0B43DB1803431343F5D0C9434918B1
:10444000FFBD0000FF07000000B5FFF7CFFF01D060
:10445000002000BD012000BD00B5FFF7C7FF80416F
:1044600000BDC04600B5FFF7C1FF01D9002000BD67
:10447000012000BD00B5FFF7B1FF01D9002000BD4C
:10448000012000BD00B5FFF7A9FF804100BD01205C
:1044900040054A00121804D85A00121801D800200A
:1044A00070470120704700000021002805D17047A7
:1044B000C1174840401AFAD0C90713B5064B1B680C
:1044C00098470CBC441CA2401005120B0349091B61
:1044D00009051943114310BD70FE00201F040000A0
:1044E00010B54C00620D8023D218DB00D21A5B0598
:1044F0007E2A10DD9E3A13DACC17090349081943C6
:104500005242D140640001341532202A05DAD040ED
:104510000843604310BD002010BD0846604310BD35
:10452000C80FC018013810BD18B4044B5B6AFC46B4
:10453000019308BD24DF794E00100000A010002078
:1045400018B4044B1B6EFC46019308BD60DF874F17
:1045500000100000A010002018B4044BDB6DFC46D6
:10456000019308BD5CDF854F00100000A010002003
:10457000C94211D300B549004908002200F018F8DB
:10458000002904D4002240428A41114600BD802106
:104590000906002000BD000018B4044BDB6EFC4689
:1045A000019308BD6CDF874E00100000A0100020B2
:1045B00018B4044B9B6FFC46019308BD78DFA34EF3
:1045C00000100000A010002018B4044BDB6FFC4664
:1045D000019308BD7CDF114F00100000A0100020E7
:1045E000024A034B00B500F0ABF900BD182D44544E
:1045F000FB2119408A0002D3920D092A08DA18B467
:10460000064B1B6CFC46019308BD40DFBB500010FD
:1046100000B5FFF7E5FF04BC9646F0E7A0100020C8
:10462000132370B51D78012D19D014DD1F48FFF735
:10463000E3FA06001E48FFF7DFFA1E4C8022310025
:10464000200000F0BDFF022D2DD01B48FFF7CCFA53
:104650001A4B186070BD1A4B164CA364F5E7184B43
:10466000144C23606360A360E36023616361A36112
:10467000E36123626362A362E36223636363A36310
:10468000E36323646364A364E36423656365A365F0
:10469000E36523666366A366E36623676367A367D0
:1046A000E367A364D1E7064BA364CEE7534400005D
:1046B00053460000A01000204C33000070FE002084
:1046C00051490010F0B545464E46DE4657461C009F
:1046D0001300E0B589B0049305944D00129B9046F9
:1046E00064006A0D81469446640D002B02D01A00C6
:1046F000002313608F4DAC456FD0002C6DD0634606
:10470000002B00D174E002000B00AC4267D0651EA4
:10471000654564DC8022CB0F9B460B0352031B0BC9
:1047200013431F00059B4E461B031B0B9A46434633
:10473000029353461A430392654500D18FE05B46CE
:10474000002B00D1ADE03B003200002756429F41D4
:1047500063461D1B002D00DCB4E00120039B40429A
:104760001911FFF7B7FB00239B461D3381469A467C
:10477000A846079418E032009A4001923300AB40FB
:1047800020000093E117029A039B00F017FE009EA1
:10479000019F5B46A346AB409B4443465B1B361AD6
:1047A0008F419846002B26DD45460C2D00DD0C255B
:1047B0004B46BC115C4353465B1B1C412B00013430
:1047C0006410203BD7D5202332005B1BDA40130056
:1047D0003A00AA401A430192D0E70022564B10003B
:1047E000190009B0F0BCBB46B246A946A046F0BDD0
:1047F00000220023F3E7079C029A039BBB4200DDE3
:104800007CE000D176E0029A039BB61A9F41BB423E
:1048100000DD8BE000D185E0029A039BB61A9F4130
:1048200002239C46E3443200029803993B0092190C
:104830007B418B420BDC01D1824208D802998A422B
:104840001BD1039A934218D15B46DB0715D5029A18
:10485000039BB61A9F4101239C46E3440DE0974217
:104860003FDD029A039B594692185B41002948D1CB
:10487000B61A9F4101232C009B46059B002B02DAB0
:104880005B465B429B46129B002B01D05A461A6046
:104890002A4A3000121B3900FFF752FE02000B00BB
:1048A0009DE763461D1B002D00DD56E7029A039B22
:1048B000BB42CCDC33D0029A039BB61A9F41012342
:1048C0009B46B0E700239B46029A039BB6185F41C4
:1048D000002F1FDAB6185F4102235B429C46E34477
:1048E000A1E7029B039CA74201D19E42B9D80200D6
:1048F0000B0074E7029BB34200D884E7002F92DAE2
:10490000E2E7921BBB411F0001235B4216002C0013
:104910009B46B2E701235B429C46E34483E7B242F5
:10492000C9D994E7029BB34200D875E701239C469E
:10493000E34478E7FF0700000000F07F3304000045
:1049400010B5002482B00094FFF7BCFE02B010BD89
:1049500007B5604601880A0A0230DF2AFAD1C9B2D7
:10496000820804D3028840880004104300E00068F5
:10497000014A5050039007BDA01000200FB403BCA3
:104980000CBCF0B50124E407634000E0F0B50C0D69
:10499000CF0F661E3605891B640503D3C943404209
:1049A00000D30131640D03D0661CF60A07D0E41B66
:1049B00000207F00791C89078912803C24031D0D8B
:1049C000DF0F6E1E36059B1B6D0503D3DB43524282
:1049D00000D301336D0D03D06E1CF60A07D0ED1B1A
:1049E00000227F007B1C9B079B12803D2D032F1B09
:1049F000661B58D4A446202E46DA20371400BC404B
:104A00001D00BD40F24033412A4380185941CB0F6D
:104A100005D0C943C043002264425041514162461F
:104A20004D0D28D10D0D07D100281FD0241940416C
:104A30004941013A0D0DF9D0640006D3013000D38D
:104A40000131002C01D140084000013A0BD4941CE4
:104A5000E40A04D112051144DB071944F0BDD9075B
:104A6000204B194300E0D9070020F0BD0029DDD11B
:104A7000002CDBD1F0BD0132C6074008CD0728432A
:104A80004908002EE1D0D9E73C2E29DA203E4037F4
:104A90001400BC4000D00124F24014431A00BB4073
:104AA0001C43D317ACE7AC46202F08DA20360400AD
:104AB000B4400D00B540F84039412843A5E73C2FEC
:104AC0000CDA203F40360400B44000D00124F84006
:104AD00004430800B1400C43C117EAE71000190075
:104AE000002494E70000F07FF0B50C0D661E36053B
:104AF000891BE60A6405640D02D0651CED0A04D02A
:104B0000002001210905803C2403A4461C0D671EDA
:104B10003F05DB1BE70A6405640D02D0651CED0A46
:104B200004D0002201231B05803C24037740644409
:104B300097B484B296B27443070C7E43150C6F434E
:104B400080B26843361802D3012000043F183004B5
:104B5000350C00197D41844688B29AB250430C0C42
:104B600062431F0C7C438EB27E43921902D301260E
:104B70003604A4191604170C3618674101BC81B21B
:104B80009AB25143040C62431B0C5C4380B25843FD
:104B9000121802D30120000424181004130C40182A
:104BA00063412D185E410020474106BC88B293B294
:104BB00058430C0C6343120C544389B251435B18A5
:104BC00002D301210904641819041A0C091862415E
:104BD0006D1856410020474118BCF902720D11436F
:104BE000F0026A0D1043ED020A0D03D16D19404128
:104BF0004941013B124E9B1B7600B3420ED26D0021
:104C000007D30130002671416646354301D1400883
:104C100040001B05C918E4072144F0BD0BDA01333D
:104C200006D1013004D101314F0D01D04908F2E71E
:104C3000E1070020F0BD013631050020EBE7000060
:104C4000FF030000F0B51C0D671E3F05DB1BE70AE4
:104C50006405640D02D0661CF60A04D0002201230C
:104C60001B05803C2403D0252D060026F6432E6626
:104C70001E096E66CE0FF619B44649004F0D02D0DC
:104C80007E1CF60A03D000200021403F3F033E1B5C
:104C9000B600B444013F7F05C91B49082E6F013699
:104CA00076089C02950D25437543ED137543AD13AE
:104CB00001356D10F603761B0CB4CC02450D2C4368
:104CC000A2B2B3B25A43270C7B43350C6F43A4B254
:104CD0006C431B1902D3012424043F191C041D0C2E
:104CE000A4187D4124196D41009A91B2ACB2614380
:104CF000170C7C432B0C5F4392B25A43A41802D387
:104D000001221204BF182204230C52187B41019C7B
:104D10006C431B19520ED9010A434401A01A81B2F7
:104D2000B2B2514303145A43360C734387B27743EC
:104D3000D617D21900277E4136049B191704160C8A
:104D40007F185E417316ED18F3010026803375411C
:104D5000A90F06D16400690AE8055B0A184309D265
:104D60002FE00422944480337541A90AA8059B0AC8
:104D7000184326D3404149412404009A019B0D0069
:104D80005543641B4343E41A95B286B27543170C2E
:104D90007E43030C5F4392B25A43B61802D30122FA
:104DA0001204BF183204330C52197B4152429C4109
:104DB000002C02D40022013051414008CA071043A0
:104DC000490802B06246D7079210084BD218084B28
:104DD0009A4203D212058918C919F0BD0020002A91
:104DE00001DC3900F0BD01331905F5E7FD030000D2
:104DF000FE070000624618CA94465A46002A20DB85
:104E000004E0624618CA944600291ADAC0186141C3
:104E10005B463B415C46B4405246FA40224344461E
:104E20004D4662416B41904699462B46B3403D4109
:104E3000FC401C4352465B46A241AB4192469B4616
:104E40007047C01AA1414B463B414C46B4404246D4
:104E5000FA40224354465D4662416B4192469B466E
:104E60002B46B3403D41FC401C4342464B46A241C9
:104E7000AB41904699467047002200B5203200F0C1
:104E800010F8080000BD002200B500F00CF8CA17A9
:104E90009A4200D100BDD8430121C907414000BD5D
:104EA00000220B150AD410B5944600F0A7F814148C
:104EB000013400DA0021CB17144C204700200021D8
:104EC00070476244343A0CD40C2A07DA040091404B
:104ED000904052422032D440214310BDD843D943A0
:104EE00010BD203207D40C4694405242203211416A
:104EF000D040204310BD0800C917203203D45242CD
:104F00002032104110BD1800190010BDC34E001012
:104F10004A00520D144BD21A13DDFF2A1EDAD205B5
:104F2000CB0FDB071A43C300400F0903490A0843AC
:104F300010435B0001D301D0013070474308FBD21E
:104F4000704702D0C80FC00770470A03121301321E
:104F5000F8D1420F072AF5D1012200E0FF22C80F45
:104F600000028018C00570478003000000210A007D
:104F7000002104E000210A00C11704E00022002300
:104F800006E0C0460022CB1758405940C01A99414C
:104F900030B5184CA21A002903D1010010D000200E
:104FA000203A4C1512D104D2013A001849414C0D57
:104FB000FAD3114CA24204D212058918DB07C91892
:104FC00030BDD243520D00200021F5E703D4013A51
:104FD00000184941FBD50B324405C00A4D05284352
:104FE000C90A640003D0002460416141E1E7E0D3D5
:104FF0004408F8E732040000FE0700000A0DCC0F59
:10500000531E1B05C91A520503D3C943404200D39E
:105010000131520D03D0531CDB0A07D0121B0020B4
:105020006400611C89078912803A1203014BD21A6D
:1050300070470000FF030000023225D40C2A1CDA5E
:105040001125AD1A0B002B41083207350600EE4042
:10505000904091403143F0CC63431A1500235A41EC
:10506000554356435743BF02F412760576196741FC
:10507000ED177F19801BB94170470C220020C9171A
:10508000490001310905DBE70902030E194300025B
:105090005342203208D40C0019419440D840204398
:1050A00000225041514170470800C917203B20326F
:1050B000F1D50020002100227047F0B5FFF742F93A
:1050C00000F006F800F046F8FFF742F9F0BD0000E6
:1050D00000B5FFF793FF30A4FFF7AEFF00242C4D7F
:1050E0002C4ED20702D3F6436D426641520004D2E1
:1050F000A246A346A846B14603E0A046A146AA465A
:10510000B3466EA4A44601271F26FFF77AFE013797
:10511000013E212FF9D100BD594684B28DB26C43B6
:10512000061475430B145E4382B25A43AD18EA1756
:1051300000D7D2431204B6182A042B0C121973415B
:10514000404649469D009B17920F2A439041994142
:105150003E2218E7494684B28DB26C43061475436B
:105160000B145E4382B25A43AD18EA1700D7D243FC
:105170001204B6182A042B0C1219734150465946D2
:105180009D009B17920F2A43504159413E22FAE657
:10519000BB4DF09DC556F6367D5100001A611400D6
:1051A00085880A00FB211900F0B5FFF7CBF8404DC8
:1051B0000C002C4001D0AC4202D1090D09050020A1
:1051C0001C002C4001D0AC4202D11B0D1B0500225B
:1051D0000026ED02002B04D502266B40694000D466
:1051E00076424F1904D599420CDD0136694003E03F
:1051F000BB4207DA013E6B40070010003A000F0087
:1052000019003B0040B4002A0FD1002B0AD05C00EB
:105210006415013409D14C006415013402D10139FF
:10522000013B02E0002000212EE0FFF70BFD3E22B3
:10523000FFF72AFE82468B4600200021804601228D
:10524000920791461DA4A44601271F26FFF7D2FD11
:105250000137013E212FF9D14A4653460C3A012429
:105260006407002752081B0005D4934100197941B7
:105270006408F7D104E05341001BB9416408F1D13F
:10528000CE0749104008304340BC002E0AD0094CDC
:10529000094D01D5E443ED43F60701D100196941F9
:1052A000001969413D22FFF76EFEFFF751F8F0BD8E
:1052B0000000F07F8D305A88A8F64332694FBB61F9
:1052C0000567AC1DB16E4096FCBAAD0F72DB0BAB3F
:1052D000A66EF50739BD9FE576ABFE034B6297BA24
:1052E0005BD5FF01D694DBDDAAFAFF005DEAEE563E
:1052F00055FF7F006E77B7AAEAFF3F00BCBB55554C
:10530000FDFF1F00DEADAAAAFFFF0F006F5555F588
:10531000FFFF0700ABAAAAFEFFFF03005555D5FF0C
:10532000FFFF0100ABAAFAFFFFFF00005555FFFF8A
:10533000FF7F0000ABEAFFFFFF3F000055FDFFFFCE
:10534000FF1F0000ABFFFFFFFF0F0000F5FFFFFF97
:10535000FF070000FFFFFFFFFF0300000000000049
:10536000000200000000000000010000000000003A
:10537000800000000000000040000000000000006D
:1053800020000000000000001000000000000000ED
:105390000800000000000000040000000000000001
:1053A000020000000000000001000000000000807A
:1053B0000000000000000040000000005143434393
:1053C000C9188C46110C83B24B4310B4040C6143D2
:1053D00092B280B2504362431C041B0C001910BCF3
:1053E00059411304120CC018514161447047000028
:1053F000C10FC90700D54042002817D0F44603B4B6
:105400000B4B1B68984706BC81409E384042803158
:1054100007D20B0607D04900490AC00510430843CC
:1054200060470130F8E7490A8902F5E77047000054
:1054300070FE0020034BDB6FFC4618477CDFD9541D
:1054400000100000A0110020132310B512481C7892
:10545000FEF7D2FB0100012C0AD003DD80220F48A9
:1054600000F0AEF80E48FEF7BFFB0E4B186010BD03
:105470000A4C5422200000F0A3F80B4B6365A3658F
:10548000E36523666366A366E36623676367A367D2
:10549000E3672362E361E5E753460000A0110020C3
:1054A0004C33000070FE0020AD54001007B560467C
:1054B00001880A0A0230DF2AFAD1C9B2820804D36D
:1054C000028840880004104300E00068014A505000
:1054D000039007BDA0110020C30FDB0741000A0E97
:1054E00007D0FF2A08D00909054A8918194340073F
:1054F00070471900002070470249C918FAE70000F8
:10550000000000380000F07F70B504000A4E300043
:1055100007F08EFD200002F0E5F90500300007F0ED
:1055200007FD002D05D0054B2C199C4201D8280001
:1055300070BD0348FDF7A8F96C0E002000000420A0
:10554000E0D1001070B505000C000B4E300007F0E4
:105550006FFD2800210002F0E5FC0500300007F097
:10556000E7FC002D05D0054B2C199C4201D82800E2
:1055700070BD0348FDF788F96C0E00200000042080
:10558000E0D1001070B50400054D280007F050FD73
:10559000200002F0B1F9280007F0CAFC70BDC04637
:1055A0006C0E002001480421014B184780070020A1
:1055B000093C0010014B1B681847000080070020C1
:1055C000014B5B6818470000800700209A4200D218
:1055D000885470477047C046F8B55746DE464E4679
:1055E0004546E0B599460A9B07009A460D9B8846BA
:1055F00093460B9C9B073BD10C9B9C423DD21E1BB0
:105600000B9415000C005E442A004B460135210026
:105610002020B847B542F7D1A0460B9C002C20D0E3
:10562000454636195346321B013C185D29004B464E
:10563000B847002CF6D12B00350098460D9B9B07F0
:105640000FD55B46EC1A0C9BA3420AD946469846F6
:105650002A004B46310020200134B847013544452B
:10566000F6D32800F0BCBB46B246A946A046F8BD1A
:1056700016001500002CD3D1E0E71600002CCFD186
:105680001500EEE7F0B54F464646D646C0B584B0A5
:1056900098460EAB1B7894469946129B0D9C109F22
:1056A000119E9A0725D4002E65D1BC4221D2012239
:1056B0001A409246202C00D1E9E00C9A551E302267
:1056C00002E0202C00D17BE001342A55A742F8D813
:1056D0005246002A0DD0B4420BD20C9A551E3022ED
:1056E000202C02D171E0202C2DD001342A55B44257
:1056F000F9D1DA063CD55A052ED4002C28D10F9AC0
:10570000102A00D1B6E0022A00D1BCE030220C9C65
:10571000227001244A46002A65D15A0700D499E034
:105720002B220C9D2A55013403930C9B6246009357
:10573000029643460194FFF74FFF04B0E0BCBA461F
:10574000B146A846F0BD2024DA06EDD55A0503D4AB
:10575000A74266D0B44264D00F9A102A71D0022AB0
:1057600057D0202CE0D02200013430250C9FBD54AE
:10577000202CD9D0CEE7012215001D40AA461A429E
:1057800036D04A46002A4AD10C321A4247D1BC428E
:10579000A1D2202C91D1202E17D82024DA06C3D5EF
:1057A0005A051BD4202F01D0202ED5D11F220F9DAA
:1057B000102D6FD0022DD8D162250C9FBD54D0E79B
:1057C0005246002A79D0202EBDD92024DA06ABD546
:1057D0005A0503D4202FE9D0202EE7D00F9A102AA3
:1057E000A2D12024A0E72D220C9D2A5501349BE74D
:1057F000BC4200D37DE7202C00D05EE7DA06F0D56E
:105800005A05EED4202F62D0202EEAD134001F2278
:10581000CDE7202C00D187E722000134CCE7013E00
:10582000B5E7621E012CC2D10F9A102A00D06AE798
:105830009A063BD558220C9C2270283A62700224AA
:1058400068E79A060ED4202CCBD078220C9D2A55DE
:10585000013486E71A0700D466E720220C9D2A55FA
:10586000013461E7202CBCD058250C9A1219157010
:10587000013476E79A0608D558220C9C2270302213
:105880006270022446E76032F7E77822F5E7002AE3
:1058900083D1B3E7A21E013C9D0603D478250C9F5B
:1058A000BD5460E758250C9FBD545CE778220C9CE2
:1058B0002270483A627002242CE7DA0600D433E7FB
:1058C0005A058BD4202F00D044E71F226FE73C00FD
:1058D0001F226CE710B5002800D110BD01F088FB35
:1058E000FBE7C046F0B557464E464546DE46E0B5B6
:1058F00099B08246894690460893229A239B1000CD
:105900001900FEF7C4FD002800D0CDE022982399AD
:105910000122D94B5242FEF7B5FD002800D0C3E06A
:10592000229823990122D54B5242FEF795FD00287B
:1059300000D0B9E02298239900220023FEF78CFDC5
:10594000002800D0F1E1229E239F8023269ADB00CD
:105950001A400D92269A1A4201D1062324938023DD
:10596000269A1B011A403B0093460996334300D008
:10597000B3E0002A00D0C2E1002300240A930B9474
:10598000002304250993259B0024AB4200D95C1B0E
:105990000223269A1A400C92269A134203D06B4295
:1059A0006B415B421C40099B002B07D00A9A0B9B62
:1059B00030003900FEF7E7FC06000F00229823991B
:1059C00000220023FEF748FD002803D080210906AD
:1059D0007B181F00269AAA4B009601971340089E39
:1059E0000493249B03940293424633004946504655
:1059F00000F0AAF90400002D67D02020269A49461D
:105A0000024013005A4253415B42621C18400A9202
:105A1000330022004530D047099A6F1ED317D4189F
:105A20005C40D30F9B46002501E0202D13D008AA2F
:105A300094461F23200063440A2101355E19FEF7B6
:105A400049FA3031317020000A21FEF743FA26006E
:105A50000400092EE9D805230693002304930A3392
:105A600003935B46089E029310AB0A9A0093494643
:105A70003300504605970195FFF704FE0C9A040089
:105A8000002A22D04246851A259AAA421DD9B0463C
:105A90005746160022004346494620200135B847A4
:105AA0000134AE42F6D810E0269B42460493259B73
:105AB00049460393249B50460293229B239C0093C8
:105AC0000194089B00F040F90400200019B0F0BCDC
:105AD000BB46B246A946A046F0BD6A4B78009C463C
