:020000041000EA
:1000000000B5324B212058609868022188439860DF
:10001000D860186158612E4B002199600221596106
:100020000121F02299502B49196001219960352056
:1000300000F044F80222904214D00621196600F024
:1000400034F8196E01211966002018661A6600F04E
:100050002CF8196E196E196E052000F02FF8012189
:100060000842F9D1002199601B49196000215960AB
:100070001A491B48016001219960EB211966A021F2
:10008000196600F012F800219960164914480160C1
:100090000121996001BC002800D000471248134993
:1000A000086003C880F30888084703B5996A0420EC
:1000B0000142FBD001200142F8D103BD02B5186610
:1000C0001866FFF7F2FF186E186E02BD00000240BE
:1000D000000000180000070000035F00212200005C
:1000E000F4000018222000A00001001008ED00E03C
:1000F00000000000000000000000000074B24E7A12
:1001000000200420F7010010C3010010C5010010F9
:10011000C1010010C1010010C1010010C101001097
:10012000C1010010C1010010C1010010C701001081
:10013000C1010010C1010010C9010010CB01001065
:10014000CD010010CD010010CD010010CD01001037
:10015000CD010010CD010010CD010010CD01001027
:10016000CD010010CD010010CD010010CD01001017
:10017000CD010010CD010010CD010010CD01001007
:10018000CD010010CD010010CD010010CD010010F7
:10019000CD010010CD010010CD010010CD010010E7
:1001A000CD010010CD010010CD010010CD010010D7
:1001B000CD010010CD010010CD010010CD010010C7
:1001C00000BE00BE00BE00BE00BE00BEEFF3058054
:1001D000103800BEF2EB8871B0350110DC3501102B
:1001E0003802001090A31AE71E481F49086006C88D
:1001F00081F3088810471D480068002801D019487D
:10020000F3E70DA40ECC002902D000F012F8F9E7B4
:100210001749184A002000E001C19142FCD116495B
:100220008847164988471649884700BEFDE701C937
:1002300001C29A42FBD37047DC350110D000002088
:100240006C090020783E011000000420000004200A
:10025000783E01100010042000100420000000006F
:10026000704700000000000008ED00E0000000D032
:100270006C090020A07202207D5B0010150B00109D
:100280003D5B0010F8B5C04606480749091A8B10B7
:10029000C90FC91810B5491003D0044B002B00D06A
:1002A000984710BD6C0900206C0900200000000078
:1002B000054B10B5002B03D00449054800E000BFF2
:1002C000FFF7E2FF10BDC046000000002818002024
:1002D00004BD0010026870B501230400002A1FD07D
:1002E000124D2560002B01D1012070BD02F04CF8A9
:1002F0000F4E73688B42F7D802D133688342F3D82C
:10030000D0231B061B68012B0DD00122094B1A605C
:10031000094B9B6A02F038F8002330607160E0E717
:10032000034E024DF4E7054A1360F1E7E2020010C4
:10033000F0130020541800200040054058180020F9
:1003400070B5824C2568002D00D1AAE0AF46804BE5
:100350002360804B9B699B0600D586E0D0231B065B
:100360001B68012B00D1C7E001227B4B1A607B4B3D
:1003700000229B5E7F2B00D1B6E020227549100041
:100380008B6918401A42FAD17F23754A0B601368B3
:10039000013B00D5A6E01360632B00DC94E0002352
:1003A0000220236070BD6F4B23606A4B9B699B06E4
:1003B0005BD4D0231B061B68012B00D1A7E00122D0
:1003C000654B1A60684B1D78644B00229B5EAB4204
:1003D00000D194E020225F4910008B6918401A4236
:1003E000FAD10D600D2D00D194E07F2D76D05C49BF
:1003F0000A68531C0B605D498D54CDE75C4B23604C
:10040000544B9B699B0630D4D0231B061B68012BE1
:1004100061D00122504B1A60504B00229B5E0A2B88
:1004200000D18AE020214B4A93691942FCD10A236A
:100430001360B4E74F4B2360464B9B699B0614D473
:10044000D0231B061B68012B74D00122424B1A607B
:10045000424B00229B5E202B64D020213D4A9369B1
:100460001942FCD13A4B1160236001209AE7424BBC
:100470002360384B9B69DB06F7D4D0231B061B682F
:10048000012B25D00122344B1A601021314A936987
:100490001942FCD11268344B01201A70314B236091
:1004A00080E764220021314803F050FF2C4B294A99
:1004B0001D609369DB0607D4102193691942FCD1B2
:1004C000136893691942F8D02B4B0120236069E728
:1004D0002A4A1360D9E7294A13609DE7254B01207A
:1004E00023605FE71060EFE720211A4A9369194201
:1004F000FCD10D23136040E7204A136037E7202129
:10050000144A93691942FCD10D23136062E71B4A18
:10051000136057E7124A154B12689854144B012088
:1005200023603FE720210B4A93691942FCD10D2338
:10053000136092E7114A13608AE72021054A936904
:100540001942FCD10D2313606CE7C046301900201E
:100550004E0300100040034054180020901A002061
:1005600050180020A60300109E7202206818002078
:10057000FC030010340400106E0400105818002012
:10058000F0B5DE4657464E464546E0B5474B85B08A
:100590001B68002B00D087E0454B1B68002B1AD14D
:1005A000444B454E9A460027444C33680FE00022E6
:1005B000554653009B189B00534428009B6898475E
:1005C00022683368013222600C359A42F1DB2760E1
:1005D000002BECDCFEE7012B06D005B0F0BCBB46DF
:1005E000B246A946A046F0BD324B344C9A46344B35
:1005F000314E9846334B344F0293344B344D039372
:10060000002399463B6801333B604B4623603368C7
:10061000002B00DCFEE72B00BB46250037005446CC
:100620001E004B46336001F0AFFE43462A68186057
:10063000596053009B189B0053449B6820009847C7
:100640003368012B0BD02B683A6801332B600C34D4
:100650009342E6DB2C0035003E005F46D2E72C00DB
:10066000236802999B00CA5835000132CA5001F034
:100670008BFE039A23689446DB009C4463460090FB
:1006800001911868596843461A685B68801A994155
:1006900002000B000098019912184B4161463E0080
:1006A0000A604B605F46ADE79F46C0465C1800207D
:1006B0006418002040190020381900201818002064
:1006C000D0130020381A0020301A002030110020EA
:1006D00054180020F0B5DE4657464E464546E0B574
:1006E000474B85B01B68002B00D087E0454B1B684B
:1006F000002B1AD1444B454E9A460027444C336890
:100700000FE00022554653009B189B0053442800DD
:100710009B68984722683368013222600C359A4200
:10072000F1DB2760002BECDCFEE7012B06D005B0E7
:10073000F0BCBB46B246A946A046F0BD324B344C95
:100740009A46344B314E9846334B344F0293344BD8
:10075000344D0393002399463B6801333B604B467D
:1007600023603368002B00DCFEE72B00BB4625002E
:10077000370054461E004B46336001F005FE4346E9
:100780002A681860596053009B189B0053449B686B
:10079000200098473368012B0BD02B683A6801334F
:1007A0002B600C349342E6DB2C0035003E005F46A4
:1007B000D2E72C00236802999B00CA583500013209
:1007C000CA5001F0E1FD039A23689446DB009C4483
:1007D0006346009001911868596843461A685B683F
:1007E000801A994102000B000098019912184B41A0
:1007F00061463E000A604B605F46ADE79F46C046DB
:100800006018002064180020B81900203C1900204E
:100810001C180020D8130020601A0020341A002071
:100820008011002058180020D0231B061B6870B5CB
:10083000012B16D016490B68092B05DD0022154B3C
:100840001A60FFF79DFE70BD5A001348D21892003F
:10085000124D84186360A5600024013384500B603E
:10086000ECE70F490B68092B0BDC5A000D48D21836
:1008700092000A4D84186360A560002401338450FF
:100880000B600022084B1A60FFF724FFDBE7C0462D
:10089000381900205C18002040190020D5020010F3
:1008A0003C190020B819002060180020026870B5BB
:1008B00001230400002A43D0264D2560002B01D1DE
:1008C000012070BD01F060FD234E73688B42F7D8A4
:1008D00002D133688342F3D8D0231B061B68012B57
:1008E00035D001221D4B1A601D4B9B6A00F092FA15
:1008F00000F0BEF900F0A2FA8C220F2364216420DC
:10090000520000F06BFC8C2287200F2364215200E0
:10091000800000F063FCDC220F236421642052007D
:1009200000F0ACFCDC22BE210F2364205200490001
:1009300000F0A4FC01F028FD002330607160BCE7EA
:1009400000F034FA00F070F9034E024DCCE7054A8E
:100950001360C9E7BA080010E813002054180020FB
:10096000004005405818002003680122F0B5002B14
:1009700029D01C4B0360002A23D01B4B9B699B068C
:100980001FD4D0231B061B68012B20D00122174B3C
:100990001A60174E174D3468174B2F5D00229B5E6F
:1009A000BB4217D02021104A93691942FCD117602D
:1009B00001342B5D00223460002BDAD10360022069
:1009C000F0BD0120FCE70024094E0A4DF1E70B4A77
:1009D0001360DEE72021044A93691942FCD10D23FC
:1009E0001360DFE772090010004003405418002034
:1009F00024180020CC180020901A0020581800203D
:100A0000F8B503680400002B4FD0324D9F46324AA0
:100A10003249334806F0EAFA2E4D324A324BC1CB06
:100A2000C1C2110045CB45C105CB05C11A880A805A
:100A30009B788B7000232B602C4B28002360FFF7E2
:100A400093FF012808DD0022294B1A60294B2360FF
:100A5000FFF776FC0128DAD80020F8BD264B0360AA
:100A600001F092FC254A53688B4229D82AD0D02322
:100A70001B061B68012B2AD00122214B1A60194941
:100A8000204B0A0061CB61C223CB23C21988114DD0
:100A900011809B78937000232B601B4B28002360F0
:100AA000FFF762FF0128B8DCD6E701F06DFC0023F8
:100AB000164A124D801859410F4B28606960236017
:100AC0000120CAE713688342D1D90120C5E7104A43
:100AD0001360D4E734190020981A002048BD001094
:100AE00068180020CC18002024BD0010380A00101F
:100AF000301900204C0A00105C0A0010E01300209E
:100B00005418002008BD00109A0A001040420F003F
:100B10005818002070B505F031F900F041FA00F0E6
:100B200033FE00F0B3FD05F097FA254805F002FB0F
:100B3000D0231B061B68012B21D0224A1368092BE6
:100B400006DD0022204B1A60FFF71AFD002070BD61
:100B50000C210C005C431D481D4E05196B60AE60F6
:100B6000002525505C1C14600A2CEAD0614346180D
:100B70007460184C0233B4600D501360E1E7164AFC
:100B80001368092B05DD0022144B1A60FFF7A2FD44
:100B9000DCE70C210C005C4311480D4E05196B601D
:100BA000AE60002525505C1C14600A2CEBD061431C
:100BB00046187460074C0233B4600D501360E2E7CE
:100BC00029080010381900205C1800204019002066
:100BD000010A0010AD0800103C1900206018002028
:100BE000B8190020F0B5C6460E4B01009846060025
:100BF00000B5180000F0C6F9C82744460500FF00FC
:100C0000103447443100200000F0BCF9A84201DA5A
:100C10000500A0461034BC42F4D1404680BCB84622
:100C2000F0BDC046F00A0020C82370B50F4CDB00B1
:100C3000A020A021A026E51803222300C002C9029B
:100C4000F602186059609E601A731033AB42F8D1F7
:100C50000821625E237B0420215E0026A05F103401
:100C600000F05AFBAC42F3D170BDC046F00A002040
:100C7000C82370B5074CDB00E5180821625E237BB2
:100C80000420215E0026A05F103400F045FBAC423A
:100C9000F3D170BDF00A0020F0B5C64600B586B0AD
:100CA0000400FFF79FFF05006A460100200000F0E6
:100CB000E5F8684600F03AF926002369AA680700BB
:100CC0009B180836984244DBC8226368920393421B
:100CD00031DB87225204934236DDA368DA17D31A38
:100CE0005340A36026002D4B06CB06C605F0B0FF8F
:100CF000050005F0ADFF2A4B2D049C46A0230004FF
:100D00002D0C000C9B02654460442361A560E060EB
:100D100005F09EFF0F230340237532003000214968
:100D200000F0A2F822003100200000F09DF806B08B
:100D300080BCB846F0BDE3685B42E360A368DA17A5
:100D40009B185340A360E8E7BE2212049342E4DDFF
:100D5000C8E7010002AA684600F0B4F8300002A912
:100D600000F0CCF843009846002BADDD791C04AAB6
:100D700002A800F08DF82200280004A900F074F801
:100D800002AA4146100000F083F832003000064904
:100D900000F07EF800F028FD96E7C046F0BF001096
:100DA0000180FFFFF8BF001066660000F8B5602301
:100DB000CE469946A02347469B0280B598460F270A
:100DC000114C124EA1442300320003CA03C305F0A4
:100DD0003FFF050005F03CFF0D4B2D049C464346AC
:100DE00000042D0C000C65446044A560E0602361A4
:100DF00005F02EFF3840207518344C45E3D1C0BCB7
:100E0000B946B046F8BDC04670170020F0BF0010CC
:100E10000180FFFF10B5084C2000FFF73DFF2000C8
:100E20001830FFF739FF20003030FFF735FF200082
:100E30004830FFF731FF10BD7017002070B5094C26
:100E400025006035226961682068D213C913C01378
:100E5000237D12B209B200B2183400F05DFAA54247
:100E6000F0D170BD7017002010B503680C68496898
:100E70001B19136043685B18536010BD10B50368FD
:100E80000C6849681B1B136043685B1A536010BDF4
:100E9000F8B50C0006000068CF1715003B002200D3
:100EA000C11703F057F94904C00B08432860706864
:100EB0003B002200C11703F04DF94904C00B084361
:100EC0006860F8BDF8B50C0007000068CE17C117C0
:100ED0001500C903420C33001143C003220001F086
:100EE0000BFE286078683300C117420CC903114318
:100EF000C003220001F000FE6860F8BD70B50D006F
:100F00002A6806000068D317C11703F023F96A683E
:100F1000C40B706849040C43D317C11703F01AF9C6
:100F20004904C00B0843201870BDC04670B50400CA
:100F300000686568C11702000B0003F00BF9EE179B
:100F40004904C40B2A00330028000C43310003F08D
:100F500001F94904C00B0843201803F015F903F008
:100F600035F9FC2300229B0502F017F802F024F962
:100F70000022034B02F011F802F09EF870BDC0464B
:100F80000000E0400A68036849689B1ADA179B185A
:100F900053404268521AD11752184A409818704765
:100FA000F0B5D6464F464646C0B57A498AB07A482B
:100FB00005F0B8F979490600774805F0B3F97849A2
:100FC0000500754805F0AEF9002380229946059387
:100FD000F82352025B0202920393C02304001B0316
:100FE000102202A906A89846049303F0B5F931002F
:100FF000731C08310A03DB01134306A9102202A85F
:10100000079303F0A9F9674B01270593A023062155
:10101000DB0210209A46029300F0FEFB012310220F
:1010200000215D48009705F0FFF93200002102AB76
:10103000594805F053FA29006B1C0D310A03DB01F6
:101040001343594A062113408022D20513430793C4
:1010500043460893554B112009935346069300F0DD
:10106000DBFB0123112201214B48009705F0DCF93D
:101070002A00012106AB484805F030FA4B46802291
:101080000593F82352025B02029203934346102217
:1010900002A906A8049303F05FF92200A31C0832FA
:1010A0001203DB01134306A9102202A8079303F0E1
:1010B00053F93F4B06211220059300F0ADFB0621AA
:1010C000132000F0A9FB0621142000F0A5FB062147
:1010D000152000F0A1FB0423122202212E480097C4
:1010E00005F0A2F92200022102AB2B4805F0F6F927
:1010F000012005F041FAA0260400012005F03CFA89
:10110000F605B4462B4BE502C2022B492B40134394
:1011100019432A4EA30163441E60294E80015E607C
:101120009626B6029E601961264960440A40264907
:101130002A430A4325490160802143608760026198
:10114000154A490253680B42FCD18021204B890289
:101150001361114A53680B42FCD1E0238021FF3315
:1011600053610D4AC90253680B42FCD14023FF333F
:101170009361184B184AA0211A6001238622A340CC
:10118000C905D2008B500AB0E0BCBA46B146A846A9
:10119000F0BDC04640C00010000020501CC0001030
:1011A00000C0001000020004FFFFFF9F2046004423
:1011B00052024010FD0700FF110001009C1A0020A0
:1011C00018002050FD871FFF09801F00F00100203C
:1011D0008F0200000020205007070000F0B54546B0
:1011E000DE4657464E46E0B5551804009C46A942D7
:1011F00037DA1B01DBB2C0439846A023C0179B001F
:101200002040984233DAF0235B009A46D23BFF3B02
:1012100001279B46174C09E032005E4632404646A5
:101220000131324309B2E254A9421ADA0B1C51458A
:1012300001DBE023FF331BB2DA43D21713409A00DD
:10124000D218D20112185310E65C1742E4D13200D2
:101250005E46B24366460131324309B2E254A942C6
:10126000E4DBF0BCBB46B246A946A046F0BD02484E
:10127000C9E7C0469C1A00207F020000F0B5454631
:10128000DE4657464E46E0B515189C46A84236DA6B
:10129000F0220B1C5200914237DA1BB2DA43D2170C
:1012A00013409C00E41863461B01DBB29846A02360
:1012B0009B009A460F2301279B46154AE40109E04B
:1012C00031005E46314046460130314300B2D154D0
:1012D000A84214DAC143C9170140514500DB0D494A
:1012E00009194B10D65C0F42EAD131005E46B1437A
:1012F00066460130314300B2D154A842EADBF0BC6B
:10130000BB46B246A946A046F0BDE023FF33C4E782
:101310009C1A00207F020000F0B54E46DE4657467C
:101320004546E0B58FB00892029392B28BB2991AFB
:101330000A9353009CB2661C09B236B276188146F5
:101340008E4244DD029BC7431B01DBB29A46A023B9
:10135000FF179B0007409F4200DB90E1F0235B00FA
:101360009846E03BFF3B9C460E339B465346019319
:101370004B46C44DB24603932E00049208E05B46F0
:101380001840019B0131184309B270558A451BDD95
:10139000081C414502DBE023FF33181C00B2C343A5
:1013A0006246DB17184083001B18DB01DB195D1058
:1013B000705D1A42E3D15B469843029B01311843AA
:1013C00009B270558A45E3DC039B049A99460123D0
:1013D0009B1A1BB29B4663421BB20B93089B002BCC
:1013E00000DC3AE1029B59461B01DBB203934B46FA
:1013F0009BB2099300230593E133FF330193E03B54
:10140000FF3B9A460E3399469E4B0791984693466A
:10141000079A93B2002A0BDB5A46013A91B212B2F4
:1014200008920B9A8B46023211B2D3180B919BB2E1
:101430000599584601318AB2570009B20137059122
:10144000B9B28C4663441BB20793099B0491D1182F
:101450000A9B46001B1A1BB29C46013636B26644F4
:1014600009B20693B34200DBFEE0CF43A023FF178F
:101470000F409B009F4200DB834F44464146069845
:101480000C9209E04B461D40039B01301D4343462F
:1014900000B2CD5486421EDD019B051C984202DB42
:1014A000E023FF331D1C2DB2EB435246DB171D40DA
:1014B000AB005B19DB01DB195D10A8464D5D1A42DC
:1014C000E0D14B469D43029B01301D43434600B291
:1014D000CD548642E0DC0A9B0C9A8846991A6B46EA
:1014E0001027DF5F09B27F18B9423EDA099D5D44DB
:1014F00028B2C043C017284003B2A0200493800044
:10150000834201DB604B049308000C960D9208E0C7
:101510004B461D40039B01301D4300B2A555874239
:101520001EDD019B051C984202DBE023FF331D1CDE
:101530002DB2EB43DB171D40AB005B19049D5246F7
:10154000AC46DB0163445E10A55D1A42E0D14B4618
:101550009D43029B01301D4300B2A5558742E0DC4C
:101560000C9E069B0D9AB3423ADA099B9A1A12B264
:10157000D543A023ED17154004959B009D4269DBE0
:10158000414B069A04930C9108E04B461840039B8C
:101590000132184312B26055B2421EDA019B101C90
:1015A0009A4202DBE023FF33181C00B2C343DB176F
:1015B000184083001B18049851468446DB0163449D
:1015C0005D10605D1942E0D14B469843029B0132A9
:1015D000184312B26055B242E0DB0C998F4233DD02
:1015E0005A46099B9B1A1DB2ED43ED171D40A023DF
:1015F0002DB29B009D420ADB234D08E04B461A406A
:10160000039B01311A4309B22254B9421CDA019BEF
:101610000A1C994202DBE023FF331A1C12B2D343A7
:101620005646DB171A4093009B18DB015B195810D4
:10163000225C1E42E2D14B469A43029B01311A437F
:1016400009B22254B942E2DB059A089B9A4204DAB5
:101650009AB2DCE6069A0C91A0E70FB0F0BCBB464C
:10166000B246A946A046F0BD0A9B991A6B461027C0
:10167000DF5F09B27F18B942E6DA024C36E7024F63
:101680006CE6C0469C1A00207F020000304BF0B58B
:10169000C6469846C0274246802601242D4B00B5F9
:1016A000951C1380BF017600200002F06DFD02F052
:1016B0008DFD294A294B01F070FC0022284B01F0D6
:1016C0006CFC01F08FFD0022264B01F066FC00222D
:1016D000244B01F03BFC01F0EFFC0005000D38430A
:1016E000013428800235B442DED1012004F044FFE9
:1016F0001D4D1E4E2860012004F03EFF2B681C4942
:10170000C202DD020A402A431643A022D2059446B3
:10171000184982016244116001219B0163445360B6
:101720009160166184226646134FD200B750134A67
:1017300081402A40124D2A4345461D60114D5D608F
:101740009C601A618623DB00F15080BCB846F0BD76
:10175000F8130020FF3700006F1283C0CA21194020
:101760000000703F00FC9F400418002009801F000B
:10177000FD871FFFF4010020FFFF1700FD7F00FF22
:1017800015801D0008C0034010B5124C12492000FE
:1017900004F02AFD0222114963680A60216813409F
:1017A0000D325140C0320A400D4904200A600D4AF2
:1017B0000121136000F030F80121052000F02CF821
:1017C0000121062000F028F80121072000F024F86C
:1017D00010BDC04600C00340002D310104F003409D
:1017E00000D0034004E00340A021C9058C46084B0B
:1017F00008491A6893016344D96380214900D9617B
:101800000123934086226146D2008B507047C04628
:1018100004180020F8130020094A83009A1810B514
:1018200014684022544080322240064CC000A44636
:1018300063441A60044B9C466044416010BDC0463E
:1018400004C0014004D00140004001400FB400B585
:10185000084883B004F0E4FA049B002B07D005A9E4
:101860001800019104F036F9034804F0D9FA012078
:1018700004F048F94CBD00105CBD0010EFF310807F
:1018800072B6034A1368002BFCD0BFF35F8F70471A
:101890002C0100D0BFF35F8F0022024B1A6080F34F
:1018A000108870472C0100D070B5EFF3108C72B621
:1018B0000D4D2B68002BFCD0BFF35F8F0724CB08A6
:1018C000C618C05C01230C40A3401C000440034226
:1018D00007D118433070BFF35F8F2C608CF31088F2
:1018E00070BD1000FFF7B2FF2C0100D0F8B54746DD
:1018F000CE46884680B5EFF3108C72B6214D2C6829
:10190000002CFCD0BFF35F8F9A422CD8D408072755
:10191000055D061901241740BC402C421FD0072149
:101920000127894609E0D408055D06194C463900AF
:101930001440A1400C00294211D001329342F2D24E
:1019400001204042BFF35F8F00220E4B1A608CF3E0
:10195000108800280FDBC0BCB946B046F8BD25434F
:1019600010003570EEE7BFF35F8F00232B608CF320
:101970001088012040424346002BECD00898FFF726
:1019800065FFC0462C0100D0044A1078431CDBB22E
:10199000172B00D9102313707047C046F8010020A0
:1019A0000021044B044ABFF35F8F02C39342FAD174
:1019B0007047C046000100D0800100D0054B064AA8
:1019C0001360064A136053609360D36013615361E0
:1019D000936170478080808000E400E004E400E0D0
:1019E0001F2318401E3B8340002905D0C021044A14
:1019F0004900535013607047802201498B50FAE729
:101A000000E100E001228240034B1B6813405A1E94
:101A10009341D8B27047C04600E100E070B50D00B8
:101A2000EFF3108672B60F4A1368002BFCD0BFF399
:101A30005F8F0D4B10309B6884001B590B4A9342FB
:101A400003D09D4201D000F017FF074B9B681D514A
:101A5000BFF35F8FBFF35F8F0022024B1A6086F3E4
:101A6000108870BD240100D000ED00E0CD01001011
:101A7000F0B5DE4657464E464546E0B50C0083B00D
:101A8000EFF3108872B6634A1368002BFCD0BFF3E3
:101A90005F8F614B61499A68030010339F00D559ED
:101AA00000938D4243D0A54254D05D4EAA1B2F2AED
:101AB0003DD85C4B9C461B689A4601231A00994608
:101AC0008240534613401F2201934B4602409340ED
:101AD0009A468022634650469850BFF35F8FEFF3DB
:101AE00005839B46002B37D0009B5B4501D000F05F
:101AF000C3FE2A004B469A439068844208D177E09F
:101B00004B005B189B00F3189868844236D01A008B
:101B1000062151560029F3DA844255D0019B002B4F
:101B200027D0C02251463F4B5200995019603A4B82
:101B30009B68DD51BFF35F8FBFF35F8F0022354B92
:101B40001A6088F3108803B0F0BCBB46B246A946C1
:101B5000A046F0BD0D00EAE72A004B469A43906884
:101B60008442D5D106201056130000280ADA0D0051
:101B700032E0802351462B4AD150D8E70620185630
:101B8000002822DB42001118890074188946A168D8
:101B90009960E179D971062161569971002925DB97
:101BA000A488F11A640524154C440919E024090598
:101BB000490D24022143998013181B4A9B00117878
:101BC000F31899711070A9E713005946002914D130
:101BD000FF3191711549918013490A789A71144A1D
:101BE0009B1B5B415A43120D0A7097E71149E2E7CC
:101BF0000620105613000028C4DA0F4A0F49D21AE3
:101C0000083A5002400D014399800D4952080A4399
:101C1000DA8083E7240100D000ED00E0CD01001060
:101C2000FC01002000E100E09F72022001BDFFFFE7
:101C3000AAAA000001BD00003602002000F0FFFF4C
:101C400000F8FFFF70B501240443EFF30581EFF3C3
:101C5000108C72B6214A1368002BFCD0BFF35F8F43
:101C60001F4B05001F4AED1A6D416A43120D1E4DB0
:101C70008900AE6852B27658A6421CD00621595649
:101C800091421CD012215956914222D01E21595600
:101C9000914220D02A2159560324914210D0134B4F
:101CA00019781A708171BFF35F8F00220B4B1A6095
:101CB0008CF3108870BDAB680D4C5C50EFE70024CE
:101CC0006100091989005B18FF2199710949998000
:101CD000E5E70124F4E70224F2E7C046240100D03E
:101CE000FC010020AAAA000000ED00E09F72022083
:101CF000CD01001001BDFFFF024B9C4661448900ED
:101D0000016070474000003470B5114C114DAC4279
:101D10000FD2FF262368002B0CD0FFF735FE010001
:101D20002000FFF7E9FFA680BFF35F8F0834AC42C5
:101D3000F0D370BDFFF728FE01002000FFF7DCFFA5
:101D40002671BFF35F8F0834AC42E3D3F1E7C0469E
:101D50005C0900206C0900200A4B1968EFF3108021
:101D600072B60A68002AFCD0BFF35F8F1B68BFF30E
:101D70005F8F00221A6080F3108840BF002000218E
:101D80007047C0468C1A0020F0B5DE4657464E46D6
:101D90004546E0B583B0EFF3058203231340B54A0F
:101DA000990052580091904601229A40B24B9346B6
:101DB0001A60B24B01932EE043469B881BB2002B66
:101DC00000DB99E043469B79002B00D0DDE04346E1
:101DD00008241C5F002C00DA06E143465A696300C0
:101DE0001B19DB00D3189D68DC686B1C00D107E170
:101DF000A34B00999C4661449A6A0B69A81A9B1AE6
:101E0000984200D20D619E4800F0B6FA8C4200DD87
:101E1000EAE000D126E15B46994843634346082245
:101E20009B5E9946002BC7DB424652695B00924697
:101E30004B44DB009A4453469E68DF6800F09CFAEE
:101E40008F42B9DC00D100E1002F00DAE1E0524618
:101E5000534654691B69019A934200D1D4E041462C
:101E600052460820085E528800042100104398471B
:101E700004000D0023002B4300D1CAE0002D00DB3D
:101E8000E7E030003900001BA94153469860D96053
:101E900000229A5E002A8FDB43465D6953009C183E
:101EA000E4002C19A768E4688C4200DD84E702D1C5
:101EB000874200D980E74646328108360DE08C42E1
:101EC00000D1D3E01E000023F25E002A0ADB53009B
:101ED0009C18E4002C19A768E4689B18DB00EB1839
:101EE0008C42ECDD53461A804B46338043469B8838
:101EF0001BB2002B00DA65E743461A69EFF3108145
:101F000072B61368002BFCD0BFF35F8F43469E88E8
:101F1000012342465B42938036B21369BFF35F8F61
:101F200000221A6081F31088002E00DA4AE7434647
:101F30005D69083342469C467700BF19FF00EF19E0
:101F4000BB68604698460823D15E9246FC6800292B
:101F500007DA0EE0A2424FD018000023C15E00292C
:101F600006DB4B005B18DB00EB18DA68A242F1DD00
:101F7000524606800023FE5E3980002EDCDA904651
:101F800043469B79002B00D121E700234246937101
:101F9000434646460821595E08364B1C24D0474626
:101FA0008946556902E006004B1C18D04B005B18AF
:101FB000DB00E8180A008C46E95E43881BB2002B60
:101FC000F1DA01235B42DC178360C4604A4503D029
:101FD00031803B8903803A81E1464B1CE6D14C4677
:101FE000B846002C00DBF8E640BF03B0F0BCBB46AF
:101FF000B246A946A046F0BD9A684245ACD9B7E7BB
:10200000631C00D0F4E6FEE6200023699847002810
:1020100025D1534642461B8813811269EFF3108382
:1020200072B611680029FCD0BFF35F8F424651465B
:1020300052880A804246494651801269BFF35F8F39
:102040000021116083F31088B6E6864200D8FBE6D3
:10205000B2E60B4800F090F90019694115E7656890
:10206000246807E7854200D8D5E6BDE7874200D857
:1020700028E737E7401800203C700540891D001014
:102080000040054070B52E4C2569002D04D00A2172
:102090002C48FFF731FE70BD2B4E0321300000F0BD
:1020A00061F9E660FFF770FC284B03229C46D023C1
:1020B00022701B061B6801216370254B6044A360DE
:1020C0000F23800020610220638063694942A18060
:1020D00019800231198647311D83585218315A52DE
:1020E00075325C39995218320131995218320131E6
:1020F0009952183201319952083518329D520231E5
:1021000018329952183201319952183201319952CC
:102110001832013199521832013199521832013175
:1021200099520C4B0C49DC6001303562FFF776FCAC
:1021300001210320FFF754FC084B1D60A7E7C046B0
:10214000440200208C1A002000400540400000346A
:10215000FFFF100040180020891D00103860054066
:1021600070B501000469EFF3108C72B62068002886
:10217000FCD0BFF35F8F02200D5E4C6968004019F0
:10218000C0002418002D37DB208848800869BFF381
:102190005F8F002606608CF31088E36063880498E4
:1021A000013320615B0405985B0CA26060611A1C1E
:1021B000002B1FD093B22804628018430A69EFF302
:1021C000108C72B61368002BFCD0BFF35F8F8B8826
:1021D00023808D800B69BFF35F8F00221A608CF320
:1021E00010880B7801329A40CB6808498C466344CA
:1021F0001A6070BD0122DDE70B69BFF35F8F00221B
:102200001A608CF3108801204042F2E73C20000065
:1022100010B543890A1493421ADD53009B18426992
:10222000DB00D3180469EFF3108C72B62268002A21
:10223000FCD0BFF35F8F5A88090494B2090C8A421C
:1022400008D00369BFF35F8F00221A608CF31088F7
:10225000002010BD8022120214435C800123026919
:102260008371BFF35F8F002111608CF310880449E4
:1022700002788C469340C268012062441360E8E70C
:102280003C200000F0B5CE46474680B504000D0066
:1022900083B0EFF305878846002F3ED12E4EA1462E
:1022A0003378F06804339B00816A1B58601A5B1A0C
:1022B00098420ED320BF294900204B6AAB4203D37A
:1022C0008A6A0130944231D803B0C0BCB946B046E6
:1022D000F0BD00F059F822002B00121A8B41002BA0
:1022E0002FDB1F4B2200009330002B000197FFF7DC
:1022F00037FF011E25DD194B5A6AAA421BD220BFA7
:102300003000FFF785FF154A0020536A4345DBD3B1
:10231000926A01309145D7D908E0104900204B6AF4
:10232000AB42D1D38A6A0130A242CDD25B1B5A1E86
:102330009341D8B2C8E79B6A9C42E1D9AA42DFD157
:10234000DDE7064A0020536A4345BDD3926A012067
:102350009145B9D9EAE7C046440200200040054053
:10236000591D001010B5024A0248FFF79DFA10BD32
:1023700060BD0010D81700200300416A0A00986A67
:10238000596A8A42FAD17047034B596A0A00986A1F
:10239000596A9142FAD170470040054070B5040077
:1023A0000D00174A536A1900966A536A8B42FAD194
:1023B0003000190024184D41AB4216D813D0104AF2
:1023C0002B00526A954203D90D494A6A9A42FCD3BE
:1023D0009A4207D10A4A02E0516A994202D1916AAF
:1023E000A142F9D370BDA642E9D9054B5B6A1C0036
:1023F0005A1CEFD0012301246442E5175B42E3E756
:1024000000400540F8B5040006200D0000F078F902
:10241000002844D0374B3849E3185A1E9341802294
:10242000120494465B429B0D344A9B05634413603F
:10243000334A136018000A689043FBD12D4B314A90
:10244000E31859424B4180215B0049000620995214
:1024500000F056F92900C00000F028FB0130C30944
:102460001ED1402701226262A362266BF30722D4A9
:10247000E36A254B0620E51800232B60266300F055
:102480003FF93900800000F011FB7023E26A5A40E6
:102490000E3313402B601D4B23630323A364F8BD4D
:1024A0001B4A93421ED900231A4A1B4F6262A36241
:1024B000266BF307DCD5194B144AE3181A60656ADA
:1024C000A36A0620AD01ED1800F01AF9144900F0D6
:1024D000EDFAAD020100280000F0E8FA0021FFF754
:1024E0005DFFC5E74006800E9F011A003F180300FC
:1024F000B9E7C0460080FCBF08C0004000E00040D3
:1025000000F00040901A00202C1000000103000091
:10251000FEFF0000FFFF0000C0FF3F003030000062
:102520004E0E0000F8B5DE464E4657464546E0B52D
:102530008B4605000A991800160000F0B7FA0A9BAE
:102540006C001F02324B64199C46A400644463680B
:1025500081469F4200D967602B1FDBB29846012B52
:1025600030D9C02380229B01E31812011A60294B45
:10257000AD0059599A4600291BD17301E026226803
:1025800053401E40802342465B01E3181E60012A2F
:1025900030D9802380229B01E31812011A60534630
:1025A0004A4667605A51F0BCBB46B246A946A046AF
:1025B000F8BD586900F07AFA013043001B18033B5C
:1025C000FDD2DAE75B46012BCBD1C02303229B016E
:1025D000E3181A60023AA3681A42FCD07301E0269D
:1025E0002268AD0053401E4080230A4A5B01924698
:1025F000E3181E605A462168514003220A401A60BF
:1026000001225B469A40A3681A42FCD0C1E7C0464B
:1026100000800040DC170020F0B546464F46D64605
:10262000C0B51F00344B44009C462418A4006444E9
:10263000636888461600FF2B02D880235B00636026
:10264000031FDBB29A46012B30D9C02380229B01A5
:10265000E31812011A60294B85005959994600293F
:102660001BD17301E026226853401E40802352464E
:102670005B01E3181E60012A30D9802380229B0170
:10268000E31812011A6080235B0063604B465F51C0
:10269000E0BCBA46B146A846F0BD586900F006FA5B
:1026A000013043001B18033BFDD2DAE74346012B00
:1026B000CBD1C02303229B01E3181A60023AA3681E
:1026C0001A42FCD07301E0262268850053401E4068
:1026D00080230A4A5B019146E3181E604246216846
:1026E000514003220A401A60012342469340A268E7
:1026F0001342FCD0C1E7C04600800040DC17002038
:10270000014B8000C0587047DC170020F8B504006A
:1027100021481E0017000D0000F0C8F90100380024
:1027200000F0C4F9069B36041B031E432368002BEC
:1027300020DB1A4B1A49E3185A1E9341802292015A
:1027400094465B421B0B174A1B0363441360164AF3
:1027500013601F000A689743FBD1144B2560E218F1
:102760002123A06013602368002BFCDA0823E660B5
:102770001360F8BD3F2322681340AB42D9D1A36850
:102780001B051B0D8342D4D1EE22E368D202134015
:10279000B342CED1EDE7C046001BB7000040FDBFFD
:1027A00008C0004000E0004000F00040043000009D
:1027B0008023024A9B000B43D36270470080054090
:1027C000142310B50100188804331B88984710BDE6
:1027D000162310B50100188802331B88984710BDD6
:1027E000F8B54746CE4680B50F1E19D0142399463A
:1027F000043304000025012698464B4618884346BA
:1028000021681B88984701C4431E98410135404206
:102810000640AF42F1D13000C0BCB946B046F8BD69
:102820000126F8E7142370B50400188804331B88C8
:102830000D000549984703000020002C01DB013002
:10284000A04029009847C04655420000AA23064AE6
:102850001B0113602F230549D360054B1960536892
:10286000002BFCDA7047C0460040024000B0FA007E
:10287000006002407047C04610B50148FEF7E6FF11
:1028800084BD001070B5074D074EB54209D2002433
:10289000013E761BB60808CD984723000134B342A9
:1028A000F9D170BDC0BC0010FCBC001070B5074D64
:1028B000074EB54209D20024013E761BB60808CD6A
:1028C000984723000134B342F9D170BDF4BC001025
:1028D000FCBC0010054B064A06491A60064A074B25
:1028E0001A6010000B689843FBD1704700E000406D
:1028F000BFCDFBFE08C00040FE7F3C0000F0004062
:10290000044BDB6C002B03D18022034BD2021A60F4
:102910007047C046000011504C201150044A054B2E
:102920001A60054A1368DB018033FBD17047C0464B
:10293000FFFFFF0100F0004008C000404022034BB1
:102940009A675A671A67DA667047C04600F0014016
:1029500010B5FFF725F810BD70B5044D044CA968FB
:10296000C022200001F0F8FCAC6070BD00ED00E07A
:1029700000000020002310B5294C82B0A367FFF7A8
:1029800065FF0122274B1A60636C012BFCD10322E7
:10299000254B1A60224A936B012BFCD10133009323
:1029A0000121224A22480433FFF7B0FE052301210A
:1029B0000093204A2048FFF7A9FE002202210420AC
:1029C0001E4BFFF729FE0022012105201C4BFFF7BB
:1029D00023FE0022002107201A4BFFF71DFE0022D4
:1029E00000210820174BFFF717FE8023DB00009320
:1029F000002200210920134BFFF794FD0022104B09
:102A000000210620FFF708FE0420FFF779FE0E499B
:102A100000F04CF801000020FFF7CAFE02B010BD24
:102A2000008000403CB0004030B00040002F6859AA
:102A300000800240008C864700C00240001BB700A7
:102A400040597307006CDC0240420F00014804212A
:102A5000014B184760020020E1270010124A936FD3
:102A60009B0815D29066D166002905D0FFE7FFE7E5
:102A7000FFE7516F106F704704B580210906C21738
:102A80005140002800D0C84309F002F9002104BDDC
:102A9000F0B5146E556E576F166FFFF7E3FF1466AF
:102AA000556657671667F0BD000000D0114A936F56
:102AB0009B0813D210665166002905D0FFE7FFE797
:102AC000FFE7516F106F704704B5002801D0002058
:102AD000C04309F0DDF8002104BDC046F0B5146E16
:102AE000556E576F166FFFF7E5FF1466556657670B
:102AF0001667F0BD000000D094464A4A926F9208D3
:102B0000624601D228E0C046F0B5464E346E756E7E
:102B1000776F366F00F020F89446424A1466556687
:102B2000576716676246F0BD94463E4A926F920818
:102B3000624601D254E0C046F0B53A4E346E756E2E
:102B4000776F366F00F04CF89446364A1466556637
:102B5000576716676246F0BD002B24DB11D00029B1
:102B60003EDA00B5C943404200D1013100F038F8E7
:102B7000C943404200D10131DB43524200D101330D
:102B800000BD002AEBD1002801D1002905D000208A
:102B9000C90FC90701D1C043410800B509F070F859
:102BA0000022002300BD00B500290ADBDB435242AE
:102BB00000D1013300F014F8C943404200D1013183
:102BC00000BDC943404200D10131DB43524200D134
:102BD000013300F005F8DB43524200D1013300BD60
:102BE000002923D1002B18D1002A0CD0BC460D4F50
:102BF00038667A6600210023FFE7FFE7FFE77A6F78
:102C0000386F67467047002801D00748010000B5BB
:102C100009F036F80022002300BD02000B0000205E
:102C200000217047000000D0FFFFFFFF002B00D005
:102C3000BFE0130C28D1002AE7D080B4114F3966C9
:102C40007A66FFE7FFE730B4040C7B6F396F1B0433
:102C500023433B667A66FFE7FFE7FFE7C04684B29F
:102C60007B6F3D6F1B0423433B667A66FFE7FFE7FC
:102C7000C04600232C042D0C7A6F386F001969416F
:102C8000B0BC7047000000D0F0B594460025140E8B
:102C900001D112020835140F01D112010435940F2D
:102CA00001D192000235D40F01D152000135D40B6D
:102CB0000134254F7C66254C3C660E0C93B2FFE731
:102CC000FFE7FFE73C6F6643360C7703BE4673436E
:102CD000DF0B5B04C01AB941130C7343DB18C91A2C
:102CE000CE086643360CB64493B273431F0F1B01E4
:102CF000C01AB941130C73431F0B1B05C01AB9410D
:102D0000860D8F023E436643360C092D24DB520AA2
:102D10007243801A7703460A6643360C16235B1B00
:102D2000DE40DF40BF1964466643821B70460435AF
:102D300006330100D940A840C01900D30131A24296
:102D400006D20023F0BD0000000000D0FFFFFFFF0F
:102D5000121B0130F3D3F1E709277F1BFE406446C5
:102D6000A2B27243801A00D20139220C7243130CB2
:102D70001204821A99410B00704604351337010082
:102D8000F940A840801900D30131002B02D1A242A2
:102D90000AD2F0BD013000D30131121BFAD2013B3F
:102DA000F8D1A24200D2F0BD013000D30131121B94
:102DB000F7E7F0B51C0C00D080E00CB400251C0A2D
:102DC00004D11B02160E3343120208351C0B04D12A
:102DD0001B01160F3343120104359C0B04D19B00D9
:102DE000960F334392000235DC0B02D192185B41FF
:102DF00001351C00971864410134464F7C66464CEF
:102E00003C660E0CFFE7FFE7FFE7C0463C6F6643FA
:102E1000360C7703BE4697B27743C01B00D2013908
:102E2000C01B00D201399FB27743C91BC91B170CC5
:102E300077437E04FF0B801BB941CE086643360CF6
:102E40000C2D33DBB644120B1F053A431B0B97B214
:102E50007743C01B00D201399FB27743C91B170CBF
:102E600077433E043F0C801BB941860D8F023E43E1
:102E7000664329277F1BFE400C3D7746AF40BF19B4
:102E800030BCA2B2ABB272437343801A9941220C98
:102E90007243130C1204801A994102000B0001378F
:102EA000001BA941F9D2781E0021F0BD0C277F1B21
:102EB000FE4077467F0BAF40FF19E0E700245D1C22
:102EC00007D0144F7D663966FFE7FFE7FFE7FFE7AE
:102ED0003C6F95B29EB265436643401BB141150CF1
:102EE0001E0C6543664336042F0C3E432D04401BE5
:102EF000B141994204D202000B0020000021F0BD34
:102F000001D19042F7D3801A994101349942F2D30A
:102F1000F6E70000000000D0FFFFFFFF44464D46EB
:102F200056465F46F0B47047F0BCA046A946B2468C
:102F3000BB46704748404140484018B41B4B5B6853
:102F4000FC46019308BD04DF7335001018B4174B1D
:102F50001B68FC46019308BD00DF7D3500109446D8
:102F6000134A926F920809D2624618B40F4BDB687D
:102F7000FC46019308BD0CDF353800100C4AF0B553
:102F8000146E556E576F166F6246FFF7EEFF084AD4
:102F90001466556657671667F0BD18B4034B9B68F7
:102FA000FC46019308BD08DFD9360010D01100207F
:102FB000000000D0FFB550404240504059404B40C7
:102FC000594000E0FFB5154F4C00640D03D0BC42E2
:102FD00004D10C0314D80020090D09055C00640D10
:102FE00003D0BC4204D11C030AD800221B0D1B05D0
:102FF00001264B4009D44B4003D58B4200D182427D
:10300000FFBD9942FCD19042FFBD0B43DB18034347
:103010001343F5D0C9434918FFBD0000FF07000066
:1030200000B5FFF7CFFF01D0002000BD012000BD9B
:1030300000B5FFF7C7FF804100BDC04600B5FFF7F0
:10304000C1FF01D9002000BD012000BD00B5FFF780
:10305000B1FF01D9002000BD012000BD00B5FFF780
:10306000A9FF804100BD012040054A00121804D884
:103070005A00121801D80020704701207047000044
:103080000021002805D17047C1174840401AFAD0E6
:10309000C90713B5064B1B6898470CBC441CA240DB
:1030A0001005120B0349091B09051943114310BDF3
:1030B000881A00201F04000010B54C00620D802308
:1030C000D218DB00D21A5B057E2A10DD9E3A13DA95
:1030D000CC170903490819435242D1406400013416
:1030E0001532202A05DAD0400843604310BD002085
:1030F00010BD0846604310BDC80FC018013810BD90
:1031000018B4044B5B6AFC46019308BD24DF113CF4
:1031100000100000D011002018B4044B1B6EFC46B8
:10312000019308BD60DF1F3D00100000D01100209A
:1031300018B4044BDB6DFC46019308BD5CDF1D3DFC
:1031400000100000D0110020C94211D300B5490081
:103150004908002200F018F8002904D40022404257
:103160008A41114600BD80210906002000BD0000F3
:1031700018B4044BDB6EFC46019308BD6CDF1F3CAA
:1031800000100000D011002018B4044B9B6FFC46C7
:10319000019308BD78DF3B3C00100000D0110020F7
:1031A00018B4044BDB6FFC46019308BD7CDFA93CDF
:1031B00000100000D011002018B4044B9B69FC469D
:1031C000019308BD18DF013A00100000D011002063
:1031D000024A034B00B500F0ABF900BD182D445472
:1031E000FB2119408A0002D3920D092A08DA18B48B
:1031F000064B1B6CFC46019308BD40DF533E00109C
:1032000000B5FFF7E5FF04BC9646F0E7D0110020BB
:10321000132370B51D78012D19D014DD1F48FFF759
:10322000D7FA06001E48FFF7D3FA1E4C8022310061
:10323000200001F091F8022D2DD01B48FFF7C0FAB5
:103240001A4B186070BD1A4B164CA364F5E7184B67
:10325000144C23606360A360E36023616361A36136
:10326000E36123626362A362E36223636363A36334
:10327000E36323646364A364E36423656365A36514
:10328000E36523666366A366E36623676367A367F4
:10329000E367A364D1E7064BA364CEE75344000081
:1032A00053460000D01100204C330000881A002043
:1032B00041350010F0B545464E46DE4657461C00E7
:1032C0001300E0B589B0049305944D00129B90461D
:1032D00064006A0D81469446640D002B02D01A00EA
:1032E000002313608F4DAC456FD0002C6DD063462A
:1032F000002B00D174E002000B00AC4267D0651EC9
:10330000654564DC8022CB0F9B460B0352031B0BED
:1033100013431F00059B4E461B031B0B9A46434657
:10332000029353461A430392654500D18FE05B46F2
:10333000002B00D1ADE03B003200002756429F41F8
:1033400063461D1B002D00DCB4E00120039B4042BE
:103350001911FFF7ABFB00239B461D3381469A46AC
:10336000A846079418E032009A4001923300AB401F
:1033700020000093E117029A039B00F0EBFE009EF1
:10338000019F5B46A346AB409B4443465B1B361AFA
:103390008F419846002B26DD45460C2D00DD0C257F
:1033A0004B46BC115C4353465B1B1C412B00013454
:1033B0006410203BD7D5202332005B1BDA4013007A
:1033C0003A00AA401A430192D0E70022564B10005F
:1033D000190009B0F0BCBB46B246A946A046F0BDF4
:1033E00000220023F3E7079C029A039BBB4200DD07
:1033F0007CE000D176E0029A039BB61A9F41BB4263
:1034000000DD8BE000D185E0029A039BB61A9F4154
:1034100002239C46E3443200029803993B00921930
:103420007B418B420BDC01D1824208D802998A424F
:103430001BD1039A934218D15B46DB0715D5029A3C
:10344000039BB61A9F4101239C46E3440DE097423B
:103450003FDD029A039B594692185B41002948D1EF
:10346000B61A9F4101232C009B46059B002B02DAD4
:103470005B465B429B46129B002B01D05A461A606A
:103480002A4A3000121B3900FFF746FE02000B00EB
:103490009DE763461D1B002D00DD56E7029A039B46
:1034A000BB42CCDC33D0029A039BB61A9F41012366
:1034B0009B46B0E700239B46029A039BB6185F41E8
:1034C000002F1FDAB6185F4102235B429C46E3449B
:1034D000A1E7029B039CA74201D19E42B9D80200FA
:1034E0000B0074E7029BB34200D884E7002F92DA06
:1034F000E2E7921BBB411F0001235B4216002C0038
:103500009B46B2E701235B429C46E34483E7B24219
:10351000C9D994E7029BB34200D875E701239C46C2
:10352000E34478E7FF0700000000F07F3304000069
:1035300010B5002482B00094FFF7BCFE02B010BDAD
:1035400007B5604601880A0A0230DF2AFAD1C9B2FB
:10355000820804D3028840880004104300E0006819
:10356000014A5050039007BDD01100200FB403BC96
:103570000CBCF0B50124E407634000E0F0B50C0D8D
:10358000CF0F661E3605891B640503D3C94340422D
:1035900000D30131640D03D0661CF60A07D0E41B8A
:1035A00000207F00791C89078912803C24031D0DAF
:1035B000DF0F6E1E36059B1B6D0503D3DB435242A6
:1035C00000D301336D0D03D06E1CF60A07D0ED1B3E
:1035D00000227F007B1C9B079B12803D2D032F1B2D
:1035E000661B58D4A446202E46DA20371400BC406F
:1035F0001D00BD40F24033412A4380185941CB0F92
:1036000005D0C943C0430022644250415141624643
:103610004D0D28D10D0D07D100281FD02419404190
:103620004941013A0D0DF9D0640006D3013000D3B1
:103630000131002C01D140084000013A0BD4941C08
:10364000E40A04D112051144DB071944F0BDD9077F
:10365000204B194300E0D9070020F0BD0029DDD13F
:10366000002CDBD1F0BD0132C6074008CD0728434E
:103670004908002EE1D0D9E73C2E29DA203E403718
:103680001400BC4000D00124F24014431A00BB4097
:103690001C43D317ACE7AC46202F08DA20360400D1
:1036A000B4400D00B540F84039412843A5E73C2F10
:1036B0000CDA203F40360400B44000D00124F8402A
:1036C00004430800B1400C43C117EAE71000190099
:1036D000002494E70000F07FF0B50C0D661E36055F
:1036E000891BE60A6405640D02D0651CED0A04D04E
:1036F000002001210905803C2403A4461C0D671EFF
:103700003F05DB1BE70A6405640D02D0651CED0A6A
:1037100004D0002201231B05803C2403774064442D
:1037200097B484B296B27443070C7E43150C6F4372
:1037300080B26843361802D3012000043F183004D9
:10374000350C00197D41844688B29AB250430C0C66
:1037500062431F0C7C438EB27E43921902D3012632
:103760003604A4191604170C3618674101BC81B23F
:103770009AB25143040C62431B0C5C4380B2584321
:10378000121802D30120000424181004130C40184E
:1037900063412D185E410020474106BC88B293B2B8
:1037A00058430C0C6343120C544389B251435B18C9
:1037B00002D301210904641819041A0C0918624182
:1037C0006D1856410020474118BCF902720D114393
:1037D000F0026A0D1043ED020A0D03D16D1940414C
:1037E0004941013B124E9B1B7600B3420ED26D0045
:1037F00007D30130002671416646354301D14008A8
:1038000040001B05C918E4072144F0BD0BDA013361
:1038100006D1013004D101314F0D01D04908F2E742
:10382000E1070020F0BD013631050020EBE7000084
:10383000FF030000F0B51C0D671E3F05DB1BE70A08
:103840006405640D02D0661CF60A04D00022012330
:103850001B05803C2403D0252D060026F6432E664A
:103860001E096E66CE0FF619B44649004F0D02D000
:103870007E1CF60A03D000200021403F3F033E1B80
:10388000B600B444013F7F05C91B49082E6F0136BD
:1038900076089C02950D25437543ED137543AD13D2
:1038A00001356D10F603761B0CB4CC02450D2C438C
:1038B000A2B2B3B25A43270C7B43350C6F43A4B278
:1038C0006C431B1902D3012424043F191C041D0C52
:1038D000A4187D4124196D41009A91B2ACB26143A4
:1038E000170C7C432B0C5F4392B25A43A41802D3AB
:1038F00001221204BF182204230C52187B41019CA0
:103900006C431B19520ED9010A434401A01A81B21B
:10391000B2B2514303145A43360C734387B2774310
:10392000D617D21900277E4136049B191704160CAE
:103930007F185E417316ED18F30100268033754140
:10394000A90F06D16400690AE8055B0A184309D289
:103950002FE00422944480337541A90AA8059B0AEC
:10396000184326D3404149412404009A019B0D008D
:103970005543641B4343E41A95B286B27543170C52
:103980007E43030C5F4392B25A43B61802D301221E
:103990001204BF183204330C52197B4152429C412D
:1039A000002C02D40022013051414008CA071043C4
:1039B000490802B06246D7079210084BD218084B4C
:1039C0009A4203D212058918C919F0BD0020002AB5
:1039D00001DC3900F0BD01331905F5E7FD030000F6
:1039E000FE07000007DA002107E0C90FC907520DE2
:1039F00003D0C91201E04C49090500207047C046B8
:103A00004A00F2D2520D013A484B9A42EAD2F0B53E
:103A10001405091B520801D3001849419B08D2180C
:103A20001205944640A44A0CA25C0B09534353432D
:103A30001B1353435B131202D21A13005B435B0B3D
:103A40004C086343DB135343DB1501335B10D21A7D
:103A5000130CD21A13005B438902840D21438DB2EB
:103A60009EB275430F0C7E431B0C5F438CB25C43CC
:103A7000361902D3012424043F193404330C641989
:103A80007B419D01A40E2C432034A5B25543241440
:103A900054432D0C6419A411D203121B95B28EB29B
:103AA0007543170C7E430C0C674393B26343F618BF
:103AB00002D301231B04FF183304340C5B197C412F
:103AC000DB186441DB18002363419EB276439DB24C
:103AD0001F0C7D437F436C04ED0BA4197D4106024E
:103AE0008F08361BAF417D07F6086E41B4B295B220
:103AF0006C4337147D43120C5743B6B25643EA1752
:103B0000AD19002672411204BF182E042A0C361972
:103B10007A410832521117D29D0A9C05D11710190B
:103B200069416144F0BD0000FF070000FE0700008E
:103B3000F8EBDFD6CDC5BEB8B2ADA8A4A09C9995D0
:103B4000928F8D8A8885838152415D0ADC05D11769
:103B500014194D412B006343A6B27643A2B2270C41
:103B60007A437F435104D20B89197A41D218D21873
:103B700080054942904102D4002301345D41600830
:103B80006908ED0728436144F0BDC046624618CA83
:103B900094465A46002A20DB04E0624618CA94463E
:103BA00000291ADAC01861415B463B415C46B440CB
:103BB0005246FA40224344464D4662416B4190468C
:103BC00099462B46B3403D41FC401C4352465B4660
:103BD000A241AB4192469B467047C01AA1414B4659
:103BE0003B414C46B4404246FA40224354465D466F
:103BF00062416B4192469B462B46B3403D41FC409F
:103C00001C4342464B46A241AB4190469946704701
:103C1000002200B5203200F010F8080000BD00229C
:103C200000B500F00CF8CA179A4200D100BDD84385
:103C30000121C907414000BD00220B150AD410B56F
:103C4000944600F0A7F81414013400DA0021CB17D1
:103C5000144C20470020002170476244343A0CD4B1
:103C60000C2A07DA04009140904052422032D4409E
:103C7000214310BDD843D94310BD203207D40C4690
:103C80009440524220321141D040204310BD0800E0
:103C9000C917203203D452422032104110BD1800FF
:103CA000190010BD5B3C00104A00520D144BD21A93
:103CB00013DDFF2A1EDAD205CB0FDB071A43C30040
:103CC000400F0903490A084310435B0001D301D0A8
:103CD000013070474308FBD2704702D0C80FC007BD
:103CE00070470A0312130132F8D1420F072AF5D1A7
:103CF000012200E0FF22C80F00028018C0057047B3
:103D00008003000000210A00002104E000210A00D5
:103D1000C11704E00022002306E0C0460022CB17B2
:103D200058405940C01A994130B5184CA21A002980
:103D300003D1010010D00020203A4C1512D104D23A
:103D4000013A001849414C0DFAD3114CA24204D259
:103D500012058918DB07C91830BDD243520D002067
:103D60000021F5E703D4013A00184941FBD50B3295
:103D70004405C00A4D052843C90A640003D0002445
:103D800060416141E1E7E0D34408F8E73204000014
:103D9000FE0700000A0DCC0F531E1B05C91A520561
:103DA00003D3C943404200D30131520D03D0531C09
:103DB000DB0A07D0121B00206400611C89078912EE
:103DC000803A1203014BD21A70470000FF03000033
:103DD000023225D40C2A1CDA1125AD1A0B002B4116
:103DE000083207350600EE40904091403143F0CC58
:103DF00063431A1500235A41554356435743BF02A4
:103E0000F412760576196741ED177F19801BB941C9
:103E100070470C220020C917490001310905DBE772
:103E20000902030E194300025342203208D40C0049
:103E300019419440D84020430022504151417047DD
:103E40000800C917203B2032F1D5002000210022B4
:103E50007047F0B5FFF762F800F006F800F046F89A
:103E6000FFF762F8F0BD000000B5FFF793FF30A444
:103E7000FFF7AEFF00242C4D2C4ED20702D3F643A1
:103E80006D426641520004D2A246A346A846B146FE
:103E900003E0A046A146AA46B3466EA4A446012765
:103EA0001F26FFF77AFE0137013E212FF9D100BD11
:103EB000594684B28DB26C43061475430B145E43AD
:103EC00082B25A43AD18EA1700D7D2431204B6188B
:103ED0002A042B0C12197341404649469D009B173A
:103EE000920F2A43904199413E2218E7494684B2F5
:103EF0008DB26C43061475430B145E4382B25A4371
:103F0000AD18EA1700D7D2431204B6182A042B0CB6
:103F100012197341504659469D009B17920F2A4330
:103F2000504159413E22FAE6BB4DF09DC556F6364A
:103F30007D5100001A61140085880A00FB211900D8
:103F4000F0B5FEF7EBFF404D0C002C4001D0AC4229
:103F500002D1090D090500201C002C4001D0AC4203
:103F600002D11B0D1B0500220026ED02002B04D5FB
:103F700002266B40694000D476424F1904D599421D
:103F80000CDD0136694003E0BB4207DA013E6B40BD
:103F9000070010003A000F0019003B0040B4002A4F
:103FA0000FD1002B0AD05C006415013409D14C00FC
:103FB0006415013402D10139013B02E000200021E7
:103FC0002EE0FFF737FC3E22FFF72AFE82468B46A3
:103FD0000020002180460122920791461DA4A4469C
:103FE00001271F26FFF7D2FD0137013E212FF9D10E
:103FF0004A4653460C3A01246407002752081B0026
:1040000005D49341001979416408F7D104E0534184
:10401000001BB9416408F1D1CE0749104008304374
:1040200040BC002E0AD0094C094D01D5E443ED43B4
:10403000F60701D100196941001969413D22FFF7D6
:104040006EFEFEF771FFF0BD0000F07F8D305A88E4
:10405000A8F64332694FBB610567AC1DB16E40964F
:10406000FCBAAD0F72DB0BABA66EF50739BD9FE551
:1040700076ABFE034B6297BA5BD5FF01D694DBDDCE
:10408000AAFAFF005DEAEE5655FF7F006E77B7AAE9
:10409000EAFF3F00BCBB5555FDFF1F00DEADAAAADD
:1040A000FFFF0F006F5555F5FFFF0700ABAAAAFEF3
:1040B000FFFF03005555D5FFFFFF0100ABAAFAFF34
:1040C000FFFF00005555FFFFFF7F0000ABEAFFFF39
:1040D000FF3F000055FDFFFFFF1F0000ABFFFFFF8C
:1040E000FF0F0000F5FFFFFFFF070000FFFFFFFFCE
:1040F000FF030000000000000002000000000000BC
:10410000000100000000000080000000000000002E
:10411000400000000000000020000000000000003F
:104120001000000000000000080000000000000077
:104130000400000000000000020000000000000079
:1041400001000000000000800000000000000040AE
:104150000000000051434343C9188C46110C83B240
:104160004B4310B4040C614392B280B2504362439B
:104170001C041B0C001910BC59411304120CC0186C
:104180005141614470470000C10FC90700D540424A
:10419000002817D0F44603B40B4B1B68984706BCA5
:1041A00081409E384042803107D20B0607D049003B
:1041B000490AC0051043084360470130F8E7490A3F
:1041C0008902F5E770470000881A0020034BDB6F77
:1041D000FC4618477CDF714200100000D01200201E
:1041E000132310B512481C78FEF7F2FA0100012CD7
:1041F0000AD003DD80220F4800F0AEF80E48FEF72B
:10420000DFFA0E4B186010BD0A4C5422200000F05B
:10421000A3F80B4B6365A365E36523666366A3663A
:10422000E36623676367A367E3672362E361E5E708
:1042300053460000D01200204C330000881A0020A2
:104240004542001007B5604601880A0A0230DF2A9D
:10425000FAD1C9B2820804D302884088000410430E
:1042600000E00068014A5050039007BDD0120020C2
:10427000C30FDB0741000A0E07D0FF2A08D0090947
:10428000054A8918194340077047190000207047F4
:104290000249C918FAE70000000000380000F07F6A
:1042A00070B504000A4E300007F002FD200002F055
:1042B000C9F90500300007F0DBFC002D05D0054BE7
:1042C0002C199C4201D8280070BD0348FDF7BEFAA6
:1042D0005C0900200000042090BD001070B50500AE
:1042E0000C000B4E300007F0E3FC2800210002F028
:1042F000C9FC0500300007F0BBFC002D05D0054BC4
:104300002C199C4201D8280070BD0348FDF79EFA85
:104310005C0900200000042090BD001070B504006E
:10432000054D280007F0C4FC200002F095F9280094
:1043300007F09EFC70BDC0465C09002001480421C6
:10434000014B184770020020E1270010014B1B6849
:104350001847000070020020014B5B6818470000FE
:10436000700200209A4200D2885470477047C046BD
:10437000F8B55746DE464E464546E0B599460A9B97
:1043800007009A460D9B884693460B9C9B073BD1A2
:104390000C9B9C423DD21E1B0B9415000C005E44EE
:1043A0002A004B46013521002020B847B542F7D1FD
:1043B000A0460B9C002C20D0454636195346321B94
:1043C000013C185D29004B46B847002CF6D12B0064
:1043D000350098460D9B9B070FD55B46EC1A0C9B4E
:1043E000A3420AD9464698462A004B46310020206F
:1043F0000134B84701354445F6D32800F0BCBB462C
:10440000B246A946A046F8BD16001500002CD3D12F
:10441000E0E71600002CCFD11500EEE7F0B54F46CF
:104420004646D646C0B584B098460EAB1B78944637
:104430009946129B0D9C109F119E9A0725D4002E21
:1044400065D1BC4221D201221A409246202C00D1D3
:10445000E9E00C9A551E302202E0202C00D17BE0CE
:1044600001342A55A742F8D85246002A0DD0B4424A
:104470000BD20C9A551E3022202C02D171E0202C38
:104480002DD001342A55B442F9D1DA063CD55A056B
:104490002ED4002C28D10F9A102A00D1B6E0022A7F
:1044A00000D1BCE030220C9C227001244A46002A34
:1044B00065D15A0700D499E02B220C9D2A5501346E
:1044C00003930C9B62460093029643460194FFF7C8
:1044D0004FFF04B0E0BCBA46B146A846F0BD202468
:1044E000DA06EDD55A0503D4A74266D0B44264D0AB
:1044F0000F9A102A71D0022A57D0202CE0D0220027
:10450000013430250C9FBD54202CD9D0CEE7012298
:1045100015001D40AA461A4236D04A46002A4AD102
:104520000C321A4247D1BC42A1D2202C91D1202E6C
:1045300017D82024DA06C3D55A051BD4202F01D062
:10454000202ED5D11F220F9D102D6FD0022DD8D136
:1045500062250C9FBD54D0E75246002A79D0202E08
:10456000BDD92024DA06ABD55A0503D4202FE9D0D3
:10457000202EE7D00F9A102AA2D12024A0E72D22C6
:104580000C9D2A5501349BE7BC4200D37DE7202CCB
:1045900000D05EE7DA06F0D55A05EED4202F62D0BF
:1045A000202EEAD134001F22CDE7202C00D187E74E
:1045B00022000134CCE7013EB5E7621E012CC2D1D6
:1045C0000F9A102A00D06AE79A063BD558220C9C15
:1045D0002270283A6270022468E79A060ED4202CD2
:1045E000CBD078220C9D2A55013486E71A0700D4D7
:1045F00066E720220C9D2A55013461E7202CBCD0AF
:1046000058250C9A12191570013476E79A0608D5C8
:1046100058220C9C227030226270022446E76032DD
:10462000F7E77822F5E7002A83D1B3E7A21E013C21
:104630009D0603D478250C9FBD5460E758250C9F38
:10464000BD545CE778220C9C2270483A62700224C8
:104650002CE7DA0600D433E75A058BD4202F00D09C
:1046600044E71F226FE73C001F226CE710B50028CB
:1046700000D110BD01F088FBFBE7C046F0B55746FE
:104680004E464546DE46E0B599B08246894690469C
:104690000893229A239B10001900FEF7E4FC0028DF
:1046A00000D0CDE0229823990122D94B5242FEF747
:1046B000D5FC002800D0C3E0229823990122D54BD5
:1046C0005242FEF7B5FC002800D0B9E022982399A9
:1046D00000220023FEF7ACFC002800D0F1E1229E6E
:1046E000239F8023269ADB001A400D92269A1A42B5
:1046F00001D1062324938023269A1B011A403B00F4
:1047000093460996334300D0B3E0002A00D0C2E1BB
:10471000002300240A930B94002304250993259B6E
:104720000024AB4200D95C1B0223269A1A400C924B
:10473000269A134203D06B426B415B421C40099B9B
:10474000002B07D00A9A0B9B30003900FEF707FCBC
:1047500006000F002298239900220023FEF768FC30
:10476000002803D0802109067B181F00269AAA4B37
:10477000009601971340089E0493249B0394029390
:10478000424633004946504600F0AAF90400002D85
:1047900067D02020269A4946024013005A425341CE
:1047A0005B42621C18400A92330022004530D04719
:1047B000099A6F1ED317D4185C40D30F9B4600256F
:1047C00001E0202D13D008AA94461F232000634443
:1047D0000A2101355E19FEF769F930313170200088
:1047E0000A21FEF763F926000400092EE9D8052303
:1047F0000693002304930A3303935B46089E0293B7
:1048000010AB0A9A0093494633005046059701952C
:10481000FFF704FE0C9A0400002A22D04246851AB3
:10482000259AAA421DD9B046574616002200434693
:10483000494620200135B8470134AE42F6D810E091
:10484000269B42460493259B49460393249B50464E
:104850000293229B239C00930194089B00F040F953
:104860000400200019B0F0BCBB46B246A946A046E1
:10487000F0BD6A4B78009C46400D6044FEF704FC96
:10488000674A684BFEF789FB674A684BFEF75EFB99
:10489000674A3B031B0B1A4304000D0009981100E3
:1048A000644B0022FEF749FB634A644BFEF775FB3D
:1048B00002000B0020002900FEF748FBFEF7FCFB7E
:1048C0000990FEF7E1FB5E4A5E4B04000D00FEF727
:1048D00064FB00225C4BFEF739FBFEF7EDFB5B4A05
:1048E0005B4B29000C902000FEF757FB04000C984E
:1048F0000D00FEF7C9FB574A574BFEF74EFB02006F
:104900000B0020002900FEF718FB04000D00020038
:104910000B000A940B95FEF740FB04000D000A986B
:104920000B9902000B00FEF711FB00220E900F9175
:104930004A4B20002900FEF712FB0022484BFEF7ED
:1049400005FB02000B0020002900FEF708FB0022F7
:10495000444BFEF7FBFA02000B0020002900FEF793
:10496000FEFA0A9A0B9B0D0080210400C905002065
:10497000FEF7E3FA02000B0020002900FEF7E6FA3A
:1049800002000B000E980F99FEF7E9FA0022284B5F
:10499000FEF7DCFA344B0C9C9C4664442305002251
:1049A000FEF7FBFA04000D0002000B003000390096
:1049B0000A940B95FEF73CFB00285DD123002A00EA
:1049C000C625099963318D42AD4159466D42043582
:1049D000002900D1A3E6134363D030003900234AF5
:1049E000234BFEF733FB002807D0002230003900AC
:1049F000204BFEF71DFB002853D1249B002B00D138
:104A00008DE60D9B5A1E9341249AD31A249386E671
:104A1000FFFFEF7FFFFFEFFFFFF7FFFF01FCFFFF4F
:104A2000FB799F501344D33FB3C8608B288AC63F9D
:104A30000000F03F0000F83F61436F63A787D23F5B
:104A400071A379094F930A400000E03F1655B5BBAA
:104A5000B16B0240EF39FAFE422EE63F00002C40D7
:104A60000000244000001840FF0300002D431CEB11
:104A7000E2361A3F80842E41099B0022013B0993B4
:104A80002000164B2900FEF76AFA0A000100030015
:104A90000A910B9294E7002300240A930B940023BD
:104AA0000993249A099B9A4214DDD31A013B24935B
:104AB0008023269ADB001A430023002526920993BF
:104AC0002DE6802212069446229B1E00239B6344FF
:104AD0001F0006E600232493EAE7C04600002440B6
:104AE000F0B54546DE464E465746E0B595B08B4696
:104AF000904699461E9A1F9B0A9019001000209D0F
:104B0000FEF7B1FA002800D0B0E11E981F990122EB
:104B1000C74B5242FEF78CFA002800D037E11E98AE
:104B20001F990122C34B5242FEF798FA002800D089
:104B3000A7E01E981F990022BF4BFEF78FFA0028AE
:104B400000D088E01E981F990022BC4BFEF770FA37
:104B5000002800D07FE01E981F9900220023FEF756
:104B600067FA002800D0FAE000230B938023229CF0
:104B7000229ADB001C401A4200D102E1092D00D824
:104B80007CE106A98C462C00172200233021093C29
:104B900062440133D154EF1A202B00D132E1A342F9
:104BA000F7D10022A44B069207931E981F99FEF797
:104BB00083FA0500FEF768FA02000B001E981F99A1
:104BC000FEF7BBF9069A079BFEF7E7F908900991F3
:104BD000FEF796FA0600FEF753FA02000B0008985B
:104BE0000999FEF7AAF90022954B08900991FEF762
:104BF00035FA002800D1D2E001363000FEF740FA45
:104C0000069A079BFEF722FA002801D000260135FC
:104C1000AA46002F00D098E02800FEF735FA0200DF
:104C20000B001E981F99FEF788F9854B002206009D
:104C30000F00FEF7FDF90CAB9A46002845D1002283
:104C4000300039007E4BFEF709FA00283DD1EB0712
:104C50003BD5013539E0229B42460493219B5946BE
:104C600003930A981E9B1F9C0295009301944B4648
:104C7000FFF704FD15B0F0BCBB46B246A946A046FE
:104C8000F0BD229B5B0767D403226E4B22990192F1
:104C9000039121990291009342464B4659460A9846
:104CA000FFF766FBE6E706AA94461723280063444D
:104CB0000A2101341E19FDF7D1FE30312800317070
:104CC0000A21FDF7CBFE051E76D0202CEBD1032365
:104CD000229A1340012B1DD1219B002B1AD00B9B34
:104CE000002B00D0BBE0229A0C33134200D0B6E078
:104CF000219BA34200D887E006AB9C4617223023B5
:104D0000624404E02199013413558C4259D0202C7F
:104D1000F8D12024229B01940393219B02935346B4
:104D2000B9E706AA944617230A21634430000134E8
:104D30001D19FDF7BBFE3031297030000A21013FFB
:104D4000FDF7B4FE092E46D90600202CE9D15546C0
:104D50000CAB20249A46B8E704223B4B96E71E9AF8
:104D60001F9B00200021FEF7E8F801230B9380230E
:104D7000229C229ADB001E901F911C401A4200D0F8
:104D8000FCE60022314B0627069207930DE7229B93
:104D90000393219B0293042301932D4B7BE7002275
:104DA00008980999264BFEF743F9002800D02FE711
:104DB000002E4FD101362BE70323229A1340012BFB
:104DC00066D0202CA6D00B9B002B1FD02D23524643
:104DD000135501349EE75546202CB9D030233A199B
:104DE000002F08D0172006A9013409180B55202CD4
:104DF000AED09442F6D10CAB9A462E2352461355B0
:104E0000013462E72024CCE6202C83D0229B5B0770
:104E100008D4229B1B0700D47CE72023524613555D
:104E2000013477E72B2352461355013472E7C0460D
:104E3000FFFFEFFFFFFFEF7F65CDCD4165CDCDC11A
:104E40000000E03FE4BD0010DCBD001080842E4176
:104E5000ECBD0010F30700D4DAE60136D8E6219B5A
:104E6000013B2193A34200D946E7AAE7229B039383
:104E7000219B029303230193074B0CE7074BEA00A6
:104E80009B185C681B682F000693079400248CE62F
:104E9000219B002B95D022E7E8BD001050C20010E6
:104EA000F0B55746DE464E464546E0B5A5B01F0074
:104EB0002E9B91460D93CA4ACA4B82468B461A6076
:104EC000002900D129E2002338789846002800D133
:104ED0002BE2C54B44460C93C44B55464E460E93AD
:104EE0000AE0631C9846220033005946A84744460E
:104EF0003878002800D187E001372528F1D1082330
:104F00009A46043B9946023B9846013B00229C4648
:104F10000B943878791C0300203BDBB2102B03D8AC
:104F20000C9C9B00E3589F460300303B0B9C0B926C
:104F3000092B3AD9002398462A2800D1DDE0002326
:104F40009A462E284BD00300683BDBB2122B1ED8AA
:104F50000E9A9B00D3589F4663460F001A43D8E72A
:104F600043460F001A43D4E74B460F001A43D0E7DD
:104F700010230F001A43CCE753460F001A43C8E72B
:104F800080235B000B9A78781A430B9201310F0053
:104F900067284FD82428A4D90300253BDBB2422B35
:104FA0009FD893499B00CB589F46002398460B9B64
:104FB00047469C4600E00131BB00DB195B001F182F
:104FC0000878303F0300303B092BF4D963460B933C
:104FD0000023B8469A460F0001312E28B3D1802015
:104FE0000B9AC00002430B923022524294467878CA
:104FF0000B0084446246092A00D8AAE12A2800D17D
:10500000B9E10F0001319EE7A046AA46B146C84566
:1050100003D301235B424B4498464B4642465946D4
:105020000020D047200025B0F0BCBB46B246A946C0
:10503000A046F0BD01006939C9B20F2900D950E777
:1050400001238B409C466B4B994663464A4613406E
:105050000F9362464B461A4200D068E10A2956D0A7
:10506000072900D03DE70D9B02CB9846002900D0D0
:1050700092E10B9B10211A008A4310001131084362
:10508000814680201A00C0000240110003421CD15A
:1050900014AB9C461F220F2362440D959C461500BD
:1050A0000F9B0B9402E0202B0CD0110064460C40A7
:1050B00020003730092C00D807380133E8540A099A
:1050C0000F29F0D80B9C0D9D0F934B460822069399
:1050D0005346059208320392002204930F9B0292DA
:1050E00001931CAB22000093594633002800FFF7C0
:1050F00095F9434604000D93FAE60D9B04CB9046C8
:10510000002A79DB78780D930F00013117E70D9BAA
:1051100002CB14930B789C4618005346002B00D109
:1051200034E1002815D05346013B013399460D94D4
:105130000B9C89444A460B00A14601E0934203D0F0
:105140005C780133002CF9D14A465B1A0D9C0B9216
:105150000F938023DB0099460B9A13400D934B4627
:105160001A4204D00F9B534501D953460F93022393
:1051700099460B9A13400B934B46134200D1F5E12D
:105180006346002B00D1D6E10D9B002B00D182E1BC
:105190000B1BD14631009A463B00A1442E005F46CE
:1051A0004D4622009B46894609E04B463900541C77
:1051B000B0475346185D002800D192E12200954285
:1051C000F3D14B465A46A946BB46350017001E0090
:1051D0004C460B9B002B00D0ADE1149B0D9387E652
:1051E000A14E001020180020B0C00010F4C0001024
:1051F00040C10010419000000B9A283802430B92E6
:1052000042465242787890460F000D93013196E65F
:1052100078786C2800D15DE180230B9A5B001A43FB
:105220000B920131B3E680239B00ABE678786828C7
:1052300000D148E180230B9A01311A430B92A6E674
:10524000672800D1B2E0472800D11AE1452800D1F3
:105250001CE10B9A0721049242460D9B03920733EF
:1052600052468B43190002920CC928000092019308
:105270000D91220033005946FFF700FA040037E68B
:10528000462800D18DE00B9A0721049242460D9BDF
:105290000392073352468B43190002920CC928002F
:1052A000009201930D91220033005946FFF718FC3C
:1052B00004001DE6631C9846220033005946252051
:1052C000A847444614E60D9B04330F93631C99468C
:1052D0000B9B9A0700D40AE10D9B220018785946CF
:1052E0003300A84743464444012B00D86FE1B04641
:1052F0002E0025004C46B9465F4622004346013445
:1053000039002020B047AC42F7D12C00BB46350015
:105310004F4646460F9B0D93EAE5D64B38789A46A2
:1053200000239846002800D0D3E500246FE66F28BC
:1053300042D000D8FDE11023782800D19BE00B9AE1
:105340009A430B920A239C46002314930A330F932B
:1053500038E057460B9AB900C919490001330F18B4
:105360001878303F010030390929F4D9BA460B9238
:105370001F00591CE7E50D9BB87804CB0237D143D9
:10538000C9170A4092460D93791CDCE5002800D12C
:10539000DFE602235B42C8E621200B9A02439146D6
:1053A00076E620230B9A1A430B926CE780230B9A24
:1053B0001B011A430B924CE708239C4600231493CD
:1053C00008330F930B9880230200DB001A40110072
:1053D0000200184200D080E00C239A431000802382
:1053E00002009B001A400B92184200D0F1E080238B
:1053F00002005B001A4091460D9A04321492184242
:1054000000D0C3E2430600D5D7E0030600D421E371
:105410000D9B1B880993002B00D02DE1103398437E
:10542000002900D128E100239946434605935346BD
:1054300004930F9B06900393002302934B46019322
:105440001CAB22000093594633002800FEF7E6FF0C
:105450000400C2E6582809D0622800D0E3E2022303
:105460009C460023149302330F93ABE720230B9A3F
:105470001A430B92103B9C460023149310330F9356
:10548000A0E780230B9A1B011A430B9220230B9A4F
:105490001A430B92DDE60B1B9A460F9B99463B0085
:1054A00037005E469B4622003B003100A84753462A
:1054B0000134185D0028F6D14B460F935B46B34686
:1054C0003E001F0085E6C0230B9AB8781A430B9262
:1054D000F91C5CE5C0239B00F6E70D239A431000FE
:1054E0007DE75B463500BB464E461F0071E64346EE
:1054F000012B66D9631E434432002E001D003B0081
:10550000A2465F4691469B4622004B460134390035
:105510002020B047AC42F7D15B463500BB464E4633
:10552000A14654461F000D9B4A4618785946330041
:105530004444A847EEE60F9BA146984500D84CE6A8
:105540004444E41AB0462E0025004C46B9465F4656
:1055500022004346013439002020B047AC42F7D145
:105560002C00BB4635004F46464636E60F98804530
:1055700000D873E24346E218131A32002E001D00D1
:105580003B0091465F469B460F9122004B460134FB
:1055900039002020B047AC42F7D15B46BB461F0024
:1055A00043460F9901330F930B7835009C464E46C6
:1055B0006046002800D0E7E50FE60D9B1B780993B5
:1055C00029E70D9B2200187859463300A8474C461E
:1055D000A0E60D9AFA3BFF3B07329A430133994606
:1055E00091444B460D931368526815921A4306D1A5
:1055F0001032904300220992002900D083E06122FA
:10560000810600D54122D2B20A9214AA91460A9A82
:1056100000210A3A0B9242461792524618925A4675
:10562000B24609911E001F31149B4944BB46169493
:105630001A950024674698468946159D19901B9235
:105640000AE03032D2B24B4601341A55A8454CD04C
:10565000202C4CD006000D003A0000233000290019
:10566000FDF762FAD2B2092AEBD90B9B9C46624441
:10567000D2B2E8E76D4300106123820600D54123D2
:10568000DBB20A3B0B93434614A91F228C461593A9
:1056900053466244B2460D9417974C468046A9463D
:1056A0001700099D0F9E169308E03033DBB20134DA
:1056B0003B55B5420ED3202C0CD0050031002800FC
:1056C000FDF7F4F9CBB20929EFD90B9A944663445C
:1056D000DBB2ECE7159B40469846169B4D46564676
:1056E000A1469A460D9C179F9FE6B742B0D9179BDB
:1056F00056469846189B5F469A461B9B09949B46C4
:10570000169C19981A9D43460593534604930F9B84
:105710000690039300230293099B01931CAB220084
:105720000093594633002800FEF778FE0400FFF787
:10573000DFFB10230B9A9A430F92692800D091E166
:105740000B9980230A00DB001A4010000A0019425E
:1057500003D0112118008A430F920F9A8023110061
:105760009B0019408C461A425BD1802311005B00DC
:10577000194089460D9904310B911A4200D0B2E0CC
:1057800013005B0600D4EDE00D9B1B781A00D90FC7
:105790000D91002B00D1A3E0100014AA94464246BC
:1057A0001F23159252466344A846BA464D461494A8
:1057B000B14604001F00169201E0202D0FD02000FA
:1057C0000A21FDF773F901357E193031317020005F
:1057D0000A21FDF76BF926000400092EEDD8159B70
:1057E0004E46A94645469846169B57469A46149CEF
:1057F0000F9B069343460593534604930A23039352
:105800000D9B02934B4601931CAB2200009359461B
:1058100033002800FEF702FE0B9B04000D93FFF7F8
:1058200067FB07220D9B07339343013294469C4448
:1058300062460D920CCBD90F0B911100194300D188
:105840009BE0D9171391129151401091139959402F
:10585000119110981199129A139B801A99411090E6
:10586000119114AA94464246002315925246994635
:10587000169232001F336344A8464E46BA4614942B
:105880001F00109C119D914601E0202E10D0200099
:1058900029000A220023FDF747F9013630322B0098
:1058A000BA550D0022000400002BEED1092AECD8D5
:1058B000159B10941195454698464B46169AB1464D
:1058C00057461E009246149C0F9B06934346059331
:1058D000534604930A2303930B9B02934B461CE706
:1058E000002885D159E70D9B1B68DA0F1100002BAA
:1058F00000D1A6E0DA179818504014AA91461F2349
:1059000042464B44A8460D94169704006546B1469E
:105910001F001491159201E0202D0FD020000A21C4
:10592000FDF7C4F801357E193031317020000A21AD
:10593000FDF7BCF826000400092EEDD8159BAC46F7
:1059400045469846149B4E4619000D9C169F0F9B8A
:105950000291069343460593534604930A23039307
:10596000634650E713001B066ED50D9B00229B5E1D
:10597000D9175A184A4092B209E7002399460028DD
:10598000A2D100220023109211936AE70D9B1B689D
:105990009946002B03D110339843002938D1612355
:1059A000820600D54123DBB20A3B0D934346169392
:1059B000534614A91F228C4617932B0062444D4670
:1059C000B246159418978046170099460B9C0F9E77
:1059D00008E03033DBB201343B55B5420ED3202C06
:1059E0000CD0050031002800FDF760F8CBB2092982
:1059F000EFD90D9A94466344DBB2ECE7169B404620
:105A00009846179B56464D469A460B94189F159CF0
:105A100043460593534604930F9B0690039300233C
:105A200002930B9B0BE50B9980230A00DB001A40C5
:105A300010000A00194200D08BE610239A430F92FF
:105A40008BE6002883D158E70D9B1B68D9175A189D
:105A50004A409CE60D9B1B680993DCE4030001337C
:105A60000F93A5E50B926DE40EB4012230B584B01E
:105A700007AC08CC064D0100009428005242039464
:105A8000FFF70EFA04B030BC08BC03B01847C0469C
:105A9000654300100FB430B50C4985B008AA08CA98
:105AA0000D680392002D0CD000920122084C524246
:105AB000200002A9A847012005B030BC08BC04B0F2
:105AC0001847180000F0ACF90020F5E72018002076
:105AD0006D46001010B5094A0300146884B0002C0C
